:020000040800F2
:10000000F0070020FD190008CB060008CD06000807
:10001000D1060008D5060008D90600080000000037
:10002000000000000000000000000000DD060008E5
:10003000DF06000800000000E1060008E3060008F3
:10004000171A0008171A0008171A0008171A0008CC
:10005000171A0008171A0008171A0008171A0008BC
:10006000171A0008390400084F040008171A00087E
:10007000171A0008171A0008171A0008171A00089C
:10008000171A0008171A0008171A0008171A00088C
:100090002B110008171A0008171A00086504000839
:1000A000171A0008171A0008171A0008171A00086C
:1000B0004B120008171A0008171A0008171A000830
:1000C000171A0008171A0008171A0008171A00084C
:1000D000171A000871190008171A0008171A0008E3
:1000E000171A0008171A0008171A0008171A00082C
:1000F000171A0008171A0008171A0008171A00081C
:10010000171A0008171A0008171A0008171A00080B
:10011000171A0008171A0008171A0008171A0008FB
:10012000171A0008171A0008171A0008171A0008EB
:10013000171A0008171A0008171A0008171A0008DB
:10014000171A0008171A0008171A0008171A0008CB
:10015000171A0008171A0008171A0008171A0008BB
:10016000171A0008171A0008171A0008171A0008AB
:10017000171A0008171A0008171A0008171A00089B
:10018000171A0008171A000800F002F800F041F8EA
:100190000AA090E8000C82448344AAF10107DA45E2
:1001A00001D100F036F8AFF2090EBAE80F0013F0F3
:1001B000010F18BFFB1A43F00103184794530000C6
:1001C000B4530000103A24BF78C878C1FAD8520757
:1001D00024BF30C830C144BF04680C6070470000C1
:1001E0000023002400250026103A28BF78C1FBD840
:1001F000520728BF30C148BF0B607047642904F024
:10020000D385002070471FB505F09CF91FBD10B5C0
:1002100010BD04F091FE1146FFF7F5FF00F0F3F872
:1002200004F0AFFE03B4FFF7F2FF03BC01F040FBA4
:1002300030B502460023F64804780078401CF44D9F
:100240002870F44840F8242028460078052802D178
:1002500000202C4620700023002105E0ED4850F8D6
:1002600021000344481CC1B20529F7DB0520B3FB7C
:10027000F0F030BD38B500200090E748006900F08C
:100280000E04E648007900B938BDC4F34700009079
:10029000E248407928B99DF80000C0F10700C0B2DB
:1002A00000909DF8000000F03CFCDD4890F9000053
:1002B0009DF80010884206D0D8488068401CD74975
:1002C0008860002088819DF8000040B2D449087001
:1002D00000BFD9E70020D349086248629FEDD20BE6
:1002E000084680ED020B9FEDD20B80ED040B9FEDD5
:1002F000D20B80ED060BC94800680860704710B546
:100300004FF48071CE4801F0F1FCC8B9C3480079C0
:1003100000BB0120C1490871002088608881FFF777
:10032000D9FFC820C7490880092000F0C3F90A2076
:1003300000F0C0F9172000F0BDF9FFF79BFF09E0BE
:1003400000F053FD00BF4FF48071BD4801F0CEFCBA
:100350000028F8D1BC48C07858B9BB4880780A2832
:1003600002DD0A20B8498870B7488078AB49086038
:100370000EE0B5484078012802DD0120B2494870FE
:10038000B1484078A549086008460068A54908605A
:10039000AD48007818B90120A049487102E000205A
:1003A0009E494871A9480078401CA8490870084631
:1003B0000078642812D10021A54803F07FFC08B919
:1003C00000F013FD4FF40071A24801F0A9FC0020D9
:1003D00092490871086088819C4908709E49488844
:1003E000FFF726FF40F6B83188420BD980219448A8
:1003F00001F098FC00F0F9FC8021964801F090FC97
:1004000000BFFEE710BD00F0C3FE94A004F08CFC1A
:100410009AA004F089FC0EE0FFF771FF0A2001F0BA
:1004200027FA01F08DF89B4908800846B0F90010C2
:1004300099A004F079FCEFE710B5022003F020F951
:1004400008B1FFF717FF022003F025F910BD10B522
:10045000042003F015F908B1FFF70CFF042003F0A6
:100460001AF910BD10B5082003F00AF908B1FFF71A
:1004700001FF0C2003F00FF910BD70B52DED0C8BB2
:10048000044668480068051B6649486A04F05BFE3C
:1004900041EC1B0B634890ED061BB0EE410AF0EEF9
:1004A000610A53EC102B51EC1B0B04F063FE41EC82
:1004B000190B5C49086A04F046FE41EC1D0B5948D3
:1004C00090ED041BB0EE410AF0EE610A53EC102BE4
:1004D00051EC1D0B04F04EFE41EC1B0B284604F0C2
:1004E00032FE41EC1D0B4F4890ED021BB0EE410A6D
:1004F000F0EE610A53EC102B51EC1D0B04F03AFEA8
:1005000041EC1C0B53EC1B2B04F032FF41EC1A0B9B
:1005100053EC192B04F040FD41EC180B04F0E4FD02
:1005200006464048006A3F49486208460562304630
:10053000BDEC0C8B70BD70B538488089401C3749C4
:1005400088810846007901280DD158480088401C50
:100550005649088031488089B0F5FA6F06DD0020E1
:100560002E49087102E00020504908804F48008859
:1005700032284CDD4E480078012828D12748806871
:10058000322100FB01F52846FFF777FF044604EB14
:1005900084004000192190FBF1F42A48008820448F
:1005A000462803DA4620274908802AE025480088A3
:1005B0002044B0F57A7F04DD4FF47A702149088039
:1005C0001FE02048008820441E49088019E0134895
:1005D000006800EB80004000192190FBF1F0194900
:1005E000088008460088462802DA4620088008E08D
:1005F00014480088B0F57A7F03DD4FF47A70114912
:1006000008800020294908800449886000BF70BD27
:100610003C000020A8000020001002400000002044
:100620003800002080000020000000000000E03FB3
:10063000B81E85EB51B8AE3F00000000000000007E
:10064000000C024054000020560000201A00002038
:100650000064004000040240BC0000202A2A2A2036
:10066000424C444320436F6E74726F6C20626F6122
:100670007264202A2A2A0D0A000000004461746571
:100680003A32303230303230332056312E30200D75
:100690000A0000001800002044533138423230B5BF
:1006A000C4CEC2B6C8CEAAA3BA2564003A000020C0
:1006B0001000002000F01F02012191404209920029
:1006C00002F1E022C2F800117047704700BFFEE758
:1006D00000BFFEE700BFFEE700BFFEE770477047C0
:1006E000704770470CB50020019000907648006874
:1006F00040F480307449086000BF7348006800F41B
:10070000003000900198401C0190009818B90198A1
:10071000B0F5A04FF1D16C48006800F4003010B182
:100720000120009001E0002000900098012846D1AF
:1007300065484030006840F08050634940310860AF
:100740006248006840F44040604908605E480830F4
:1007500000685D49083108600846006840F40040C0
:1007600008600846006840F4A05008605848091F17
:100770000860081F006840F08070091F086000BF13
:100780005148006800F000700028F9D040F2057070
:10079000504908604C480830006820F003004A497E
:1007A000083108600846006840F00200086000BF99
:1007B00045480830006800F00C000828F8D10CBD4E
:1007C00010B54548006840F47000434908603E4851
:1007D000006840F001003C49086000203A490831B7
:1007E0000860394800683D490840374908603C487E
:1007F000091D0860081F006820F48020091F086098
:10080000002031490C310860FFF76CFF4FF00060A9
:1008100031498039086010BD70B5002000220223E4
:1008200000240221284D08352D6805F00C0020B168
:10083000042806D0082834D107E02A4D2A4E356016
:1008400033E02A4D284E35602FE01F4D2D1D2D68B9
:10085000C5F380541C4D2D1D2D6805F03F0154B18A
:10086000224DB5FBF1F5184E361D3668C6F38816D5
:1008700005FB06F209E01B4DB5FBF1F5124E361DE6
:100880003668C6F3881605FB06F20F4D2D1D2D6840
:10089000C5F301456D1C6B00B2FBF3F5124E3560DC
:1008A00003E0104D104E356000BF00BF064D083507
:1008B0002D68C5F303150E4E705D0B4D2D68C540B8
:1008C000094E356070BD00000038024000700040E5
:1008D00019544007003C024088ED00E0FFFFF6FE9F
:1008E000103000240024F4004000002040787D01F6
:1008F000440000201CB50121082002F0F9FC4FF44F
:100900004040009001208DF8040000208DF8060082
:1009100003208DF8050001208DF807006946044882
:1009200001F082F94FF44041014801F0FBF91CBD90
:10093000000C02401CB50121084602F033FD0121E4
:10094000102002F0D5FC4FF40070009002208DF8CA
:10095000040000208DF8060003208DF8050001201A
:100960008DF807006946FE4801F05EF90122092171
:10097000FB4801F0E4F901220B21F94801F0DFF90D
:1009800001220D21F64801F0DAF901220821F4488C
:1009900001F0D5F901220A21F14801F0D0F9012234
:1009A0000C21EF4801F0CBF94FF40060009069464C
:1009B000EB4801F039F94FF4005000906946E848DF
:1009C00001F032F94FF4807000906946E44801F07C
:1009D0002BF94FF4806000906946E14801F024F95A
:1009E0004FF4805000906946DD4801F01DF91CBDB0
:1009F00000B58DB0DB48006844F62061B0FBF1F033
:100A000080B2401E0B900020ADF82800ADF83000F9
:100A1000ADF82A008DF832000AA9D34801F09FFCF6
:100A20006020ADF814000120ADF816000420ADF8E8
:100A3000180000200790ADF82000ADF822004FF418
:100A40008070ADF824004000ADF8260005A9C64826
:100A500001F01AFD0020079005A9C34801F04DFDE3
:100A60000020079005A9C04801F094FD4FF40060F4
:100A7000ADF804004010ADF806000020ADF8080005
:100A8000ADF80A00ADF80C004FF40050ADF80E00C0
:100A90004000ADF8100001A9B34802F0C1F80821E8
:100AA000B14801F07EFE0821AF4801F083FE082125
:100AB000AD4801F08CFE0121AB4801F0BBFC0121E7
:100AC000A94801F0D5FC0121A74802F0C2F8002294
:100AD0001146A54801F03AFF00221146A24801F054
:100AE00044FF00220421A04801F030FF002204212D
:100AF0009D4801F03AFF002208219B4801F026FFA3
:100B000000220821984801F030FF0DB000BD10B55B
:100B10004FF47A7095490880FFF70CFFFFF768FFE4
:100B200010BD70B50446072C7ED2DFE804F07D6866
:100B3000CE9C0436FD00002211468B4801F006FFD2
:100B400000221146884801F010FF8648006844F6EC
:100B50002061B0FBF1F085B22946834801F0EFFD3A
:100B600001220421804801F0F1FE7E48006844F62D
:100B70002061B0FBF1F080B27C49098848434FF412
:100B80007A7190FBF1F52946774801F0DAFD0422ED
:100B90000821754801F0E9FE25E10022082172488C
:100BA00001F0D4FE002208216F4801F0DEFE6D48FE
:100BB000006844F62061B0FBF1F080B26B4909880F
:100BC00048434FF47A7190FBF1F52946664801F0ED
:100BD000B4FD04220021644801F0C7FE61480068AA
:100BE00044F62061B0FBF1F085B229465E4801F081
:100BF000A6FD012204215C4801F0A8FEF3E00022DA
:100C00000421594801F0A2FE00220421564801F0B7
:100C1000ACFE5448006844F62061B0FBF1F080B2AD
:100C200052490988484300E0BEE04FF47A7190FBD6
:100C3000F1F529464C4801F080FD042200214A4884
:100C400001F093FE4748006844F62061B0FBF1F0E4
:100C500085B22946444801F074FD0122082142482A
:100C600001F074FEBFE0002211463F4801F06EFE25
:100C7000002211463C4801F078FE3A48006844F6EC
:100C80002061B0FBF1F080B23849098848434FF445
:100C90007A7190FBF1F52946334801F050FD0422AA
:100CA0001146314801F061FE2E48006844F620618B
:100CB000B0FBF1F085B229462B4801F042FD01223C
:100CC0000821294801F042FE8DE000220821264833
:100CD00001F03CFE00220821234801F046FE214895
:100CE000006844F62061B0FBF1F085B229461E4849
:100CF00001F023FD012200211B4801F027FE1948C5
:100D0000006844F62061B0FBF1F080B21749098811
:100D100048434FF47A7190FBF1F52946124801F0EF
:100D20000EFD0422114600E003E00F4801F01DFE15
:100D300059E0002204210C4801F008FE00220421A1
:100D4000094801F012FE0748006844F62061B0FB34
:100D5000F1F085B22946044801F0EFFC012207E0DA
:100D6000001002404000002000000140540000201C
:100D700000214D4801F0EAFD4C48006844F620612E
:100D8000B0FBF1F080B24A49098848434FF47A71C8
:100D900090FBF1F52946444801F0D3FC04220821D8
:100DA000414801F0E2FD1EE0002211463E4801F0FC
:100DB000CDFD002211463C4801F0D7FD0022042160
:100DC000394801F0C3FD00220421374801F0CDFD70
:100DD00000220821344801F0B9FD002208213248E0
:100DE00001F0C3FD00BF00BF70BD10B50E2002F0C2
:100DF00052FC092000F04FF80A2000F04CF81720B0
:100E000000F049F800221146274801F09FFD00221A
:100E10001146254801F0A9FD00220421224801F0D5
:100E200095FD00220421204801F09FFD00220821A9
:100E30001D4801F08BFD002208211B4801F095FDA3
:100E4000052000F015FD04220021174801F08DFD5A
:100E500004221146144801F088FD0422082112489A
:100E600001F083FD00BF13488089B0F5C86FFADB3D
:100E7000002211460C4801F078FD002204210A48A6
:100E800001F073FD00220821074801F06EFD0020EB
:100E90000849087110BD00F01F0201219140064A67
:100EA000430942F823107047000001404000002031
:100EB000540000200000002080E100E01CB501216A
:100EC0001A2002F06FFA4FF46070009003208DF842
:100ED000050001208DF8040000208DF80600694609
:100EE000424800F0A1FE8021404800F01BFF4FF473
:100EF00080713E4800F016FF4FF400713B4800F04F
:100F000011FF8020009003208DF8050001208DF84E
:100F1000040000208DF806006946354800F084FE84
:100F20008021334800F0FEFE4FF4706000900020F6
:100F30008DF8040069462E4800F076FE1CBD00B511
:100F400085B00121084602F0D3F902200390002069
:100F50008DF8100003A9274800F066FE04200390D6
:100F600003A9244800F060FE0820039003A921484B
:100F700000F05AFE0121880302F014FA0121042036
:100F800001F0A3FF0221042001F09FFF03210420B0
:100F900001F09BFF0E20019000208DF8080010202A
:100FA0008DF8090001208DF80A0001A802F002FB6B
:100FB00009208DF8000000208DF801008DF8020056
:100FC00001208DF80300684600F03DFD0A208DF8F1
:100FD000000000208DF801008DF8020001208DF83E
:100FE0000300684600F02FFD05B000BD000402407C
:100FF000000C02400010024000B589B00121082019
:1010000002F076F90121480602F0BBF903200790AF
:1010100002208DF8200000208DF8220003208DF89A
:10102000210001208DF8230007A9554800F0FCFDA0
:1010300009220021524800F082FE09220121504875
:1010400000F07DFE00208DF816008DF817008DF859
:1010500018008DF819008DF81A008DF81B008DF816
:1010600012008DF8130009208DF8140006208DF869
:1010700015000420ADF8100004A9424802F02DFB31
:1010800000208DF80A008DF80B0001208DF80C006F
:101090000020ADF800004FF40970ADF802004FF6E3
:1010A000FF70ADF80400ADF806000020ADF80800B0
:1010B00001208DF80D00684602F099FB002009B070
:1010C00000BDF0B585B006460F4600240020009014
:1010D00001968DF808008DF8090008208DF80A00A7
:1010E00000BF05E0395D0DF10B000155601C84B2B5
:1010F000082CF7DB6946234802F068FC054600240B
:1011000001E0601C84B229461E4802F0F7FC18B9C1
:1011100040F6FF708442F4DB40F6FF70844202DB4D
:10112000012005B0F0BD0020FBE700B585B0002030
:10113000009001908DF808008DF80A008DF81300DA
:101140008DF80B006A4600210E4802F034FD01982C
:1011500044280CD19DF80B000B4908709DF80C0039
:1011600048709DF80D0088709DF80E00C870012031
:10117000064908700221034802F03BFF05B000BD9C
:10118000000C024000640040560000205A0000207D
:1011900010B5FFF715FB00F052F8A82000F006FB91
:1011A000FFF78CFEFFF7CBFE00F05CF8FFF724FFA3
:1011B000FFF7ADFCFFF79EFB00F085FA4FF4E1303E
:1011C00000F084FB4FF4A06000F038FC10BD0EB5B9
:1011D0000121084602F0D5F84FF0804001F012F8E6
:1011E0000920019041F61F40ADF800000020ADF845
:1011F0000800ADF8020069464FF0804001F0AFF8FA
:101200000121880701F060FD01221146900701F0DD
:1012100047FD0121880701F02BF90EBD08B51C2000
:101220008DF8000001208DF8010002208DF80200E9
:1012300001208DF80300684600F005FC08BD10B5DC
:10124000FFF7ECFFFFF7C3FF10BD10B501218807C2
:1012500001F03DFD28B10121880701F049FDFFF7AC
:101260006AF910BD00B59BB00121042002F040F8DE
:101270000121880202F096F80121880502F038F871
:10128000032019908DF868008DF8690001208DF811
:101290006A0000208DF86B0019A9334800F0C4FCE7
:1012A0004FF080600090314801903148029000205A
:1012B000039002200490002005904FF48060069077
:1012C00040000790800008904011099040020A9069
:1012D00000200B9001200C9000200D900E9069468C
:1012E000244802F07BFF0121224802F0B1FF0020D8
:1012F0000F901090119012900FA803F0DBF80020CF
:10130000139001208DF8500000208DF851001590A9
:10131000179002208DF8600013A914484C3803F090
:101320009AF8002302220B2110484C3803F019F9D7
:10133000002301220A210D484C3803F012F9012143
:101340000A484C3803F0B8F9012108484C3803F03A
:10135000A8F9012105484C3803F0C3F803484C387C
:1013600003F05BF91BB000BD000802404C220140B5
:101370005E0000201064024010B59048006820F420
:1013800040208E4908600846006840F480200860CC
:1013900000208B49086040F2EE2000F021FA012085
:1013A0008849C1F8A4020F2000F01AFA10BD10B548
:1013B00000248248006820F44020804908600846E4
:1013C0000068086004E0601CC4B2012000F008FA64
:1013D0007B488038006808B1C82CF4DBC82C01DBDE
:1013E000012010BD002404E0601CC4B2012000F004
:1013F000F7F973488038006808B9F02CF4DBF02C5A
:1014000001DB0120EDE70020EBE710B56B48006839
:1014100020F44020694908600846006840F48020B4
:101420000860002066490860022000F0D9F9012018
:101430006449C1F8A4026148006820F440205F4973
:1014400008600846006808600C2000F0C9F95C4894
:101450008038006808B1012400E00024322000F048
:10146000BFF9204610BD70B50026012508E0FFF742
:10147000CCFF0446E00140EA6600C6B2681CC5B273
:10148000082DF4DD304670BD70B504464B48006849
:1014900020F44020494908600846006840F4802054
:1014A0000860012520E004F0010664106EB1002000
:1014B00043490860022000F093F901204149C1F836
:1014C000A4023C2000F08CF90CE000203C490860AC
:1014D0003C2000F085F901203A49C1F8A40202201D
:1014E00000F07EF9681CC5B2082DDCDD70BD10B5BA
:1014F000FFF742FFFFF75BFFCC20FFF7C5FF44205B
:10150000FFF7C2FF10BD1CB50121402001F0F0FE25
:101510004FF40070009001208DF8040000208DF839
:10152000060002208DF8050001208DF807006946AD
:10153000224800F079FBFFF71FFFFFF738FF1CBDC3
:101540002DE9F0412DED048BFFF7D1FFFFF714FFDC
:10155000FFF72DFFCC20FFF797FFBE20FFF794FF8A
:10156000FFF781FF0746FFF77EFF0446072C05DDE6
:10157000E043C4B2F843C7B2002600E00126254686
:10158000280205B2E81905B2284603F0DCFD41EC5B
:10159000190B9FED0D0B53EC102B03F0EBFD41EC01
:1015A000180B03F0A1FD05B226B12846BDEC048B53
:1015B000BDE8F081684200B2F8E700000018024080
:1015C000A402434200004342000000000000E43F48
:1015D00000B587B00121022001F08AFE01218803B5
:1015E00001F0CFFE4FF480516E4800F099FB0120CE
:1015F0008DF8180000208DF81A004FF480500590E7
:1016000002208DF8190005A9664800F00DFB0220A4
:101610008DF8180000208DF81A004FF460400590F6
:1016200005A9604800F000FB05220D215D4800F08F
:1016300086FB05220E215B4800F081FB05220F216D
:10164000584800F07CFB0020ADF800004FF4827099
:10165000ADF802004FF40060ADF804000220ADF8D0
:1016600006000120ADF808004002ADF80A0038205D
:10167000ADF80C000020ADF80E000720ADF810000A
:101680006946494803F05AF90121474803F050FAE6
:1016900007B000BD014600BF43480830008800F095
:1016A00002000028F8D0404A0C32118000BF3E48AA
:1016B0000830008800F001000028F8D03A480C30CB
:1016C000008800B2704710B54FF4FA7000F0D0F8FF
:1016D000FFF77EFF4FF48051324800F023FB46F6BF
:1016E0001020FFF7D7FF4FF480512E4800F018FB71
:1016F000012000F0BDF84FF480512A4800F012FBA1
:101700004FF4D640FFF7C6FF4FF48051254800F054
:1017100007FB012000F0ACF84FF48051214800F0A5
:1017200001FB4FF4C850FFF7B5FF4FF480511D483F
:1017300000F0F6FA012000F09BF84FF480511948B0
:1017400000F0F0FA41F60320FFF7A4FF4FF48051B8
:10175000144800F0E5FA012000F08AF84FF48051B7
:10176000104800F0DFFA41F61830FFF793FF4FF40E
:1017700080510C4800F0D4FA012000F079F84FF4C1
:101780008051084800F0CEFA41F61040FFF782FF82
:101790004FF48051034800F0C3FA012000F068F8CC
:1017A00010BD0000000402400038004010B504469F
:1017B0006FF0040000F094F9E11704EB5171C1F3EC
:1017C000C701394A11701046007800EB4001C1EBA7
:1017D000C0104FF6FF7101EAC0003449088010BD07
:1017E0000146314A12784A434FF0E0235A61002201
:1017F0009A611A46126942F001021A6100BF4FF065
:10180000E022106900F001021AB100F48032002ACF
:10181000F5D04FF0E022126922F001024FF0E023F0
:101820001A6100229A6170470146204A12884A4391
:101830004FF0E0235A6100229A611A46126942F081
:1018400001021A6100BF4FF0E022106900F00102AE
:101850001AB100F48032002AF5D04FF0E02212696C
:1018600022F001024FF0E0231A6100229A617047D2
:1018700070B504464FF4077094FBF0F0C6B24FF415
:10188000077094FBF0F100FB114085B205E04FF4C6
:101890000770FFF7C9FF701EC6B2002EF7D115B151
:1018A0002846FFF7C1FF70BD6400002066000020DD
:1018B000014600BF704700BF4C4A128802F0400248
:1018C000002AF9D0C2B2494B9A80704710B588B04F
:1018D00004460121084601F00BFD0121102001F012
:1018E00061FD07220921424800F029FA07220A2156
:1018F0003F4800F024FA4FF4C060069002208DF8B3
:101900001C008DF81D0000208DF81E0001208DF8B0
:101910001F0006A9364800F087F902940020ADF8B0
:101920000C00ADF80E00ADF81000ADF814000C205E
:10193000ADF8120002A92D4800F0A1FA01212B48B0
:1019400000F025FB012240F22551284800F0D5FB8C
:1019500025208DF8040003208DF805008DF8060081
:1019600001208DF8070001A800F06DF808B010BD47
:1019700010B540F225511D4800F0FAFB10B31B488A
:1019800000F034FBC4B21B48008800F40040C8B922
:101990001848008800F4804060B10A2C03D0002071
:1019A0001449088020E01348008840F400401149A1
:1019B000088019E00D2C06D10E48008840F48040C4
:1019C0000C49088010E00B480088C0F30D000A495C
:1019D0000C5408480088401C0649088008460088C6
:1019E000C72801DD0020088010BD00000010014064
:1019F000000002406C000020C80000200948804719
:101A000009480047FEE7FEE7FEE7FEE7FEE7FEE7E0
:101A1000FEE7FEE7FEE7FEE704480549054A064BF8
:101A200070470000C107000889010008F00100208C
:101A3000F0070020F0030020F003002032490143AA
:101A4000324A1160704770B5002100230F22C4781C
:101A50001CB32E4C246804F4E064C4F5E064C4F3C1
:101A60000721C1F10404E3B20A4144789C40E1B289
:101A70008478144021430C07210E254C05786155CC
:101A8000047804F01F050124AC4005786D11AD0009
:101A900005F1E025C5F8004109E0047804F01F05D0
:101AA0000124AC401B4D0678761145F8264070BDE8
:101AB000194A0A400243154B1B1F1A60704739B17F
:101AC000124A121D12680243104B1B1D1A6006E0D9
:101AD0000E4A121D126882430C4B1B1D1A60704780
:101AE000042808D14FF0E021096941F004014FF0CA
:101AF000E022116107E04FF0E021096921F00401C3
:101B00004FF0E022116170470000FA050CED00E093
:101B100000E400E080E100E080FFFF1F10B5044614
:101B20009848844208D10121084601F04CFC00216C
:101B3000012001F048FC76E09348844208D101215D
:101B4000022001F040FC0021022001F03CFC6AE090
:101B50008E48844208D10121042001F034FC002188
:101B6000042001F030FC5EE08948844208D1012164
:101B7000082001F028FC0021082001F024FC52E09C
:101B80008448844208D10121102001F01CFC00216E
:101B9000102001F018FC46E07F48844208D1012162
:101BA000202001F010FC0021202001F00CFC3AE084
:101BB0007A48844208D10121402001F004FC002130
:101BC000402001F000FC2EE07548844208D101213C
:101BD000802001F0F8FB0021802001F0F4FB22E0DE
:101BE0007048844208D10121801501F0ECFB0021EE
:101BF000A01501F0E8FB16E06B48844208D10121F2
:101C0000401501F0E0FB0021601501F0DCFB0AE06B
:101C10006648844207D10121001501F0D4FB002160
:101C2000201501F0D0FB10BDF0B50A4600210023BD
:101C3000002400BF3DE0012505FA01F3156805EA1F
:101C400003049C4234D105684F000326BE40B543CF
:101C5000056015794E00B540066835430560157975
:101C6000012D02D01579022D16D185684F0003266B
:101C7000BE40B543856055794E00B5408668354312
:101C80008560456801268E40B54345604568967974
:101C90008E40B6B235434560C5684F000326BE404E
:101CA000B543C560D5794E00B540C6683543C560BB
:101CB000491C1029BFD3F0BD4FF6FF710160002110
:101CC000017141718171C171704708B54FF4803263
:101CD0000092009A0A430092009AC261C161009A80
:101CE000C261C2690092C269009208BD024600202A
:101CF00013690B400BB1012000E000207047014642
:101D0000086980B270470246002053690B400BB14E
:101D1000012000E0002070470146486980B270470A
:101D200001837047418370470AB1018300E041831A
:101D300070474161704742694A4042617047F0B55F
:101D4000002300244D07ED0E02FA05F3CE1000F13A
:101D5000200555F826504E07F70E0F26BE40B54316
:101D6000CF1000F1200646F82750CE1000F12005D4
:101D700055F8265045EA0304CE1000F1200545F839
:101D80002640F0BD0000024000040240000802406E
:101D9000000C0240001002400014024000180240F3
:101DA000001C0240002002400024024000280240A3
:101DB00010B50446FA48844208D10121102001F0F0
:101DC00046FB0021102001F042FB57E0F548844219
:101DD00009D10121480401F029FB00214FF4003012
:101DE00001F024FB4AE0F048844209D10121880433
:101DF00001F01CFB00214FF4802001F017FB3DE0B7
:101E0000EA48844209D10121C80401F00FFB0021F6
:101E10004FF4002001F00AFB30E0E548844209D18C
:101E20000121080501F002FB00214FF4801001F0B0
:101E3000FDFA23E0DF48844208D10121202001F08F
:101E400006FB0021202001F002FB17E0DA48844263
:101E500009D10121880701F0E9FA00214FF0804003
:101E600001F0E4FA0AE0D548844207D10121400597
:101E700001F0DCFA0021600501F0D8FA10BD2DE96F
:101E8000FF4705460E460024A14600BFA046B08984
:101E900000B100BF2C8A24F44054F08804432C8203
:101EA000AC8941F20C608443B08831890843718960
:101EB00008430443AC81AC8A24F44074B0890443E1
:101EC000AC82684601F043F9B548854202D0B94872
:101ED000854202D1DDF80C9001E0DDF80890A88978
:101EE00000F4004040B109EBC90000EB0910316873
:101EF0004900B0FBF1F707E009EBC90000EB09105E
:101F000031688900B0FBF1F76420B7FBF0F0040101
:101F10002009642101FB1078A88900F4004040B139
:101F2000322000EBC800B0FBF1F000F007000443E2
:101F300008E0322000EB08106421B0FBF1F000F063
:101F40000F0004432C81BDE8FF874FF41651016058
:101F500000218180C18001810C214181002181818A
:101F6000704710B502460020108A20F470600B887C
:101F70004C8823438C882343CC8823431843108206
:101F800010BD0021018041808180C180704721B156
:101F9000828942F40052828104E082894DF6FF7307
:101FA0001A4082817047028B02F47F420283028BC7
:101FB0000A430283704721B1828942F40042828140
:101FC00003E08289C2F30E028281704721B1828AC6
:101FD00042F40062828204E0828A4FF2FF731A4068
:101FE00082827047C1F30802828070470146888868
:101FF000C0F308007047028A4FF6F0731A4002825D
:10200000028A0A430282704721B1828942F00202A9
:10201000828104E082894FF6FD731A408281704705
:1020200082894FF2FF731A40828182890A4382813A
:102030007047028A4FF6DF731A400282028A0A430F
:102040000282704721B1028A42F48042028204E097
:10205000028A4BF6FF731A4002827047818941F071
:1020600001018181704721B1828A42F00802828297
:1020700004E0828A4FF6F7731A4082827047028B1F
:10208000D2B20283028B42EA01220283704721B15D
:10209000828A42F02002828204E0828A4FF6DF7355
:1020A0001A408282704721B1828A42F010028282F5
:1020B00004E0828A4FF6EF731A4082827047828A68
:1020C0004FF6FB731A408282828A0A4382827047EB
:1020D00021B1828A42F00202828204E0828A4FF6B3
:1020E000FD731A40828270471AB1838A0B43838240
:1020F00002E0838A8B4383827047F0B50346002455
:1021000000260025002040F66A17B94200D100BF22
:102110001846C1F3421401F01F06012707FA06F51D
:10212000012C01D10C3004E0022C01D1103000E070
:1021300014301AB107682F43076002E00768AF4305
:102140000760F0BD02460020B1F5007F00D100BF5E
:1021500013880B400BB1012000E00020704701F410
:102160000072B2F5007F00D100BFCA430280704701
:1021700070B50246002400230025002040F66A16B0
:10218000B14200D100BFC1F3421501F01F03012687
:1021900006FA03F3012D13D19689334017E00000AE
:1021A000001001400044004000480040004C004046
:1021B000005000400014014000780040007C0040C6
:1021C000022D02D1168A334001E0968A33400C1268
:1021D000012606FA04F41688344013B10CB101202C
:1021E00000E0002070BD10B50022002340F66A1404
:1021F000A14200D100BF0A1201249440A3B2DC43E3
:10220000048010BD10B50446FE48844208D1012167
:10221000084601F01CF90021012001F018F99DE0A9
:10222000B4F1804F08D10121084601F0FFF80021E8
:10223000012001F0FBF891E0F348844208D101212C
:10224000022001F0F3F80021022001F0EFF885E010
:10225000EE48844208D10121042001F0E7F8002172
:10226000042001F0E3F879E0E948844208D1012133
:10227000082001F0DBF80021082001F0D7F86DE01C
:10228000E448844208D10121102001F0CFF8002158
:10229000102001F0CBF861E0DF48844208D1012131
:1022A000202001F0C3F80021202001F0BFF855E004
:1022B000DA48844208D10121022001F0C8F8002147
:1022C000022001F0C4F849E0D548844209D1012137
:1022D000080401F0BCF800214FF4803001F0B7F899
:1022E0003CE0D048844209D10121480401F0AFF814
:1022F00000214FF4003001F0AAF82FE0CA488442D0
:1023000009D10121880401F0A2F800214FF48020B6
:1023100001F09DF822E0C548844208D10121402007
:1023200001F084F80021402001F080F816E0C04858
:10233000844208D10121802001F078F8002180201A
:1023400001F074F80AE0BB48844207D101218015EE
:1023500001F06CF80021A01501F068F810BD002212
:102360000288A84B98420ED0AC4B98420BD0B0F1EB
:10237000804F08D0A44B984205D0A44B984202D07D
:10238000A34B984204D14FF68F731A404B881A43DF
:10239000A04B984207D0A04B984204D04FF6FF4381
:1023A0001A400B891A4302804B68C3620B8803856D
:1023B000944B984202D0994B984201D18B7A038674
:1023C0000123838270474FF0FF314160002101807B
:1023D00001814180817270470185828270470A467F
:1023E000002101884FF68F73194011430180704717
:1023F00041627047C16270470146486A70470146B2
:10240000088D704721B1028842F00202028004E088
:1024100002884FF6FD731A400280704721B102888E
:1024200042F00402028004E002884FF6FB731A4077
:102430000280704721B1028842F08002028004E0ED
:1024400002884FF67F731A400280704702884FF669
:10245000F7731A40028002880A430280704702889C
:102460004FF6FF431A40028002880A4302807047F9
:1024700021B1028842F00102028004E002884FF696
:10248000FE731A400280704770B5002400220023BA
:10249000058C4FF6FE7635400584028C8388048BCC
:1024A0004FF68F752C40B51E2C400D882C43751EA1
:1024B0002A408D892A434D882A43524DA84202D092
:1024C000564DA84213D14FF6F7752A40CD892A43BD
:1024D0004FF6FB752A408D882A434FF6FF652B4047
:1024E0004FF6FF552B400D8A2B434D8A2B4383809B
:1024F00004838D684563028470BD70B5002400229A
:102500000023058C4FF6EF7635400584028C8388D6
:10251000048B48F6FF752C404FF6FF452C400D8884
:102520004FF6FF7606EA05252C434FF6DF752A4065
:102530008D8906EA05152A434D8806EA05152A43C2
:10254000304DA84202D0354DA8421DD14FF67F75BF
:102550002A40CD894FF6FF7606EA05152A434FF645
:10256000BF752A408D8806EA05152A434FF6FF35C8
:102570002B404FF2FF752B400D8A06EA85052B4351
:102580004D8A06EA85052B43838004838D68856325
:10259000028470BD70B5002400220023058C4FF624
:1025A000FF6635400584028C8388848B4FF68F75D7
:1025B0002C404FF6FC752C400D882C434FF6FF55F0
:1025C0002A408D894FF6FF7606EA05252A434D8875
:1025D00006EA05252A430B4DA84202D00F4DA8421A
:1025E00038D14FF2FF752A40CD894FF6FF7606EAC3
:1025F00005252A434FF6FF352A408D8806EA052532
:102600002A4319E000000140000400400008004097
:10261000000C004000100040001400400004014085
:1026200000400140004401400048014000180040C3
:10263000001C0040002000404EF6FF752B404DF678
:10264000FF752B400D8A06EA05152B434D8A06EAD5
:1026500005152B43838084838D68C563028470BD18
:1026600070B5002200230024058C4EF6FF7635401D
:102670000584038C8488828B48F6FF752A404FF6C8
:10268000FF452A400D884FF6FF7606EA05252A43C6
:102690004DF6FF752B408D8906EA05352B434D8895
:1026A00006EA05352B43FE4DA84202D0FD4DA84257
:1026B00008D14BF6FF752C400D8A4FF6FF7606EADF
:1026C00085152C43848082838D680564038470BDE6
:1026D000002101804180818081608181C1810182EE
:1026E0004182704770B50346002000241846183018
:1026F00001258D40ACB21D8CA5431D8409B108296C
:102700000AD100EB610005684FF68F763540056011
:102710000568154305600FE00D1FC5F34E052844FD
:10272000056848F6FF763540056005684FF6FF7688
:1027300006EA02263543056070BD41637047816338
:102740007047C1637047016470470A460021018BDE
:102750004FF68F7319401143018370470A460021D9
:10276000018B48F6FF7319404FF6FF7303EA02230B
:102770001943018370470A460021818B4FF68F73FE
:1027800019401143818370470A460021818B48F626
:10279000FF7319404FF6FF7303EA02231943818345
:1027A00070470A460021018B4FF6F7731940114319
:1027B000018370470A460021018B4FF2FF731940D5
:1027C0004FF6FF7303EA02231943018370470A4659
:1027D0000021818B4FF6F7731940114381837047B5
:1027E0000A460021818B4FF2FF7319404FF6FF73A9
:1027F00003EA02231943818370470A460021018BB3
:102800004FF6FB7319401143018370470A460021BC
:10281000018B4FF6FF3319404FF6FF7303EA022393
:102820001943018370470A460021818B4FF6FB73E1
:1028300019401143818370470A460021818B4FF66E
:10284000FF3319404FF6FF7303EA022319438183D4
:1028500070470A460021018B4FF67F7319401143E0
:10286000018370470A460021018BC1F30E014FF628
:10287000FF7303EA02231943018370470A460021CC
:10288000818B4FF67F7319401143818370470A464D
:102890000021818BC1F30E014FF6FF7303EA02237F
:1028A0001943818370470A460021018C4FF6FD735E
:1028B00019401143018470470A460021018C4FF6EC
:1028C000F77319401143018470470A460021018CB7
:1028D0004FF6DF7319404FF6FF7303EA02131943F3
:1028E000018470470A460021018C4FF67F7319401E
:1028F0004FF6FF7303EA02131943018470470A4637
:102900000021018C4FF6FF5319404FF6FF7303EA85
:1029100002231943018470470A460021018C4FF2BB
:10292000FF7319404FF6FF7303EA02231943018432
:1029300070470A460021018C4DF6FF7319404FF68F
:10294000FF7303EA023319430184704730B5002353
:1029500001248C40A3B2048C9C430484048C02FAAE
:1029600001F5ADB22C43048430BD30B500230424FE
:102970008C40A3B2048C9C430484048C02FA01F5BD
:10298000ADB22C43048430BD828B4FF2FF331A402A
:102990008283828B4FF6FF7303EA01231A438283FB
:1029A0007047F0B50C461546002100220026078C22
:1029B0004EF6FF7C07EA0C070784818B028C4FF6EA
:1029C000FF7707EA043640F6FF4739404FF6FF77B6
:1029D00007EA052739434FF6FF7707EA03373943FC
:1029E00045F6FF773A4046F480573A4381830284A4
:1029F000F0BD828B4FF6F3731A408283828B0A43B9
:102A000082837047F0B50C4615460021002200264F
:102A1000078C4FF6FF6C07EA0C070784818B028C4A
:102A20004FF6FF7707EA04264FF60C7739404FF64A
:102A3000FF7707EA03172F4339434FF2FF573A4016
:102A400046F480773A4381830284F0BD028B4FF2D3
:102A5000FF331A400283028B4FF6FF7303EA012310
:102A60001A4302837047F0B50C4615460021002238
:102A70000026078C4FF6EF7C07EA0C070784018BD2
:102A8000028C4FF6FF7707EA041640F6FF473940FD
:102A90004FF6FF7707EA033739434FF6FF7703E036
:102AA000000001400004014007EA052739434FF6C2
:102AB0005F773A4046F010073A4301830284F0BD45
:102AC000028B4FF6F3731A400283028B0A43028390
:102AD0007047F0B50C46154600210022068C4FF6D3
:102AE000FE773E400684018B028C4FF60C76314017
:102AF0007E1C06EA03162E4331434FF6F57632402C
:102B000044F00106324301830284F0BD70B50546EE
:102B10000C46208850B92389A28861882846FFF78F
:102B2000D8FFE1882846FFF7CBFF25E0208804285E
:102B30000AD12389A28861882846FFF794FFE1889B
:102B40002846FFF783FF17E0208808280AD1238949
:102B5000A28861882846FFF755FFE1882846FFF7DD
:102B600048FF09E02389A28861882846FFF719FFFA
:102B7000E1882846FFF708FF70BD002101804180F1
:102B8000012181800021C180018170472DE9F04140
:102B900005460C4600260127608808B9022600E099
:102BA0000026A088012801D1022700E00127208803
:102BB000A0B92389A28861882846FFF78AFFE188A7
:102BC0002846FFF77DFF23893A4631462846FFF71E
:102BD0004AFFE1882846FFF739FF13E02389A288DE
:102BE00061882846FFF73FFFE1882846FFF72EFF60
:102BF00023893A4631462846FFF76BFFE18828468D
:102C0000FFF75EFFBDE8F0810146486B7047014663
:102C1000886B70470146C86B70470146086C704767
:102C20000A884B881A438B881A43CB881A430B892E
:102C30001A434B891A438B891A43A0F844207047E2
:102C40000021018041808180C18001814181818199
:102C5000704731B1B0F8442042F40042A0F844205B
:102C600005E0B0F84420C2F30E02A0F844207047FB
:102C700021B1828842F00402828004E082884FF60B
:102C8000FB731A408280704721B1828842F00102B2
:102C9000828004E082884FF6FE731A40828070477B
:102CA0001AB183890B43838102E083898B4383813B
:102CB00070478182704702460020138A0B400BB197
:102CC000012000E000207047CA430282704730B5FF
:102CD0000246002000230024158A05EA0103958995
:102CE00005EA010413B10CB1012000E0002030BD61
:102CF000CA430282704741EA0203A0F84830704795
:102D00001AB183890B43838102E083898B438381DA
:102D1000704721B1828842F00802828004E08288F4
:102D20004FF6F7731A408280704701894FF6F872A8
:102D30001140018170470A46002101894FF68F73C7
:102D4000194011430181704730B504460D462946AC
:102D50002046FFF7F0FF208940F00700208130BDBA
:102D60002DE9F04104460D4616461F46602D06D15A
:102D70003B46012231462046FFF775FE05E03B4603
:102D8000012231462046FFF7A4FE29462046FFF7E0
:102D9000D2FF208940F007002081BDE8F08130B5E6
:102DA0000C4600210189C9B24FF6FF7505EA0325DB
:102DB000154325432943018130BD2DE9F0410546E6
:102DC0000E4617469846002443463A463146284662
:102DD000FFF7E5FF2C894FF6F870044044F0070434
:102DE0004FF68F70044044F070042C81BDE8F081F0
:102DF000F0B504460D4616461F463B463246294668
:102E00002046FFF7CCFF208940F480402081F0BDB0
:102E100082884FF68F731A40828082880A438280AC
:102E2000704702894FF6F8731A40028102890A43FB
:102E30000281704702894FF67F731A40028102892E
:102E40000A4302817047F0B50C4615461E46002124
:102E5000002200230189028B038C4FF6F87739405A
:102E600021434FF6FC473A4040F201173A434FF6F0
:102E7000DD773B404FF6FF7707EA06172F433B43CA
:102E8000018102830384F0BD21B1828842F0800277
:102E9000828004E082884FF67F731A4082807047F8
:102EA000A0F850107047000010B50121880300F011
:102EB000CEFA00214FF4804000F0C9FA10BD1C4941
:102EC000086070471B490862704730B500228B07C5
:102ED0001C0F0F2303FA04F2154B08338C1053F820
:102EE00024309343124C08348D1044F82530234687
:102EF0008C1053F824308C07240F00FA04F4234379
:102F00000B4C08348D1044F8253030BD0949DC31B4
:102F10000860704708490860704700200449203164
:102F2000096801F4807109B1012000E000207047B8
:102F3000003801400000274200042742F948006899
:102F400040F00100F74908600020F64908310860A8
:102F5000F4480068F4490840F2490860F348091D44
:102F60000860F348EF4984310860F0481038091DC3
:102F70000860EC48006820F48020EA4908600020DE
:102F8000E8490C310860E7498C310860704700213E
:102F9000E44A921C117011460870704710B5014642
:102FA0000022002300204A11012A02D1DD4C2368AF
:102FB00008E0022A03D1DB4C7034236802E0D94CCC
:102FC0007434236801F01F02012494401C400CB1AA
:102FD000012000E0002010BD38B500200090002442
:102FE000002500BF3120FFF7D9FF05460098401C9F
:102FF00000900098B0F5A04F01D0002DF2D0312004
:10300000FFF7CCFF08B1012400E00024204638BDC2
:1030100001460020C34A106820F0F80040EAC100D1
:1030200010607047C349086070470021BD4A703284
:1030300011701170012802D004280AD104E0012186
:10304000B84A7032117005E00521B64A703211702D
:1030500000E000BF00BF7047B7490860704770B517
:10306000049C41EA82150126C6EB530645EA064553
:10307000054345EA0465AB4E361D356070BDAD496C
:1030800008667047820142EA0172A64B84331A60D7
:103090007047A8498866704710B5830143EA016309
:1030A00043EA02739F4C8834236010BDA14908672E
:1030B0007047A049C864704702460020994B083306
:1030C000186820F0EC6042EA01031843954B08337E
:1030D0001860704702460020924B0833186820F0B1
:1030E000784042EA010318438E4B0833186070475A
:1030F000014600208B4A0832106820F00300084384
:103100001060704787480830006800F00C00704776
:1031100001460020834A0832106820F0F00008437E
:1031200010607047014600207E4A0832106820F483
:10313000E05008431060704701460020794A083289
:10314000106820F4604040EAC10010607047F0B59C
:10315000002100220024022500260223714F083797
:103160003F6807F00C0121B1042905D0082937D1A7
:1031700005E0724F076036E0714F076033E0694F3A
:103180003F1D3F68C7F38056664F3F1D3F6807F0FD
:103190003F036EB16A4FB7FBF3F7DFF888C10CF15C
:1031A000040CDCF800C0CCF3881C07FB0CF40CE02A
:1031B000624FB7FBF3F7DFF86CC10CF1040CDCF8DD
:1031C00000C0CCF3881C07FB0CF4564F3F1D3F6832
:1031D000C7F301477F1C7D00B4FBF5F7076002E0F1
:1031E000564F076000BF00BF4E4F08373F6807F0DB
:1031F000F0010909534F7A5C0768D7404760494F8F
:1032000008373F6807F4E051890A4E4F7A5C4768F7
:10321000D7408760434F08373F6807F46041490B48
:10322000484F7A5C4768D740C760F0BD002100F482
:103230004072B2F5407F0AD13A4A0832116821F44F
:10324000F811414A02401143364A08321160354AAA
:1032500070321268C0F30B031A43324B70331A609A
:103260007047354944390860704733494039086030
:10327000704736490860704701460020294A8C3261
:10328000106820F01F004A1E1043264A8C3210603E
:10329000704701460020234A8C32106820F4F85011
:1032A0004A1E40EA02201F4A8C32106070470146D5
:1032B00000201C4A8C32106820F440100843106033
:1032C000704701460020174A8C32106820F44000F5
:1032D00008431060704701460020124A8C32106883
:1032E00020F4403008431060704719490860704767
:1032F00039B10C4A3032126802430A4B30331A603B
:1033000006E0084A303212688243064B30331A60B6
:103310007047F9B1034A343212680243014B343327
:103320001A601CE000380240FFFFF6EA103000246B
:103330000030002000004742800E47420024F40085
:1033400040787D016E000020FFFCFF0F5C014742CA
:10335000E01147428F4A126882438E4B1A607047D1
:1033600039B18C4A121D126802438A4B1B1D1A6028
:1033700006E0884A121D12688243864B1B1D1A60A4
:10338000704739B1834A0C3212680243814B0C33C7
:103390001A6006E07F4A0C32126882437D4B0C3380
:1033A0001A60704739B17B4A103212680243794B78
:1033B00010331A6006E0774A103212688243754B68
:1033C00010331A60704739B1724A243A12680243C6
:1033D000704B243B1A6006E06E4A243A126882431E
:1033E0006C4B243B1A60704739B16A4A203A126824
:1033F0000243684B203B1A6006E0664A203A126896
:103400008243644B203B1A60704739B1614A1C3AD1
:10341000126802435F4B1C3B1A6006E05D4A1C3A8F
:10342000126882435B4B1C3B1A60704739B1594AA2
:10343000143A12680243574B143B1A6006E0554A8F
:10344000143A12688243534B143B1A60704739B1E7
:10345000504A103A126802434E4B103B1A6006E085
:103460004C4A103A126882434A4B103B1A6070472C
:1034700039B1484A1C3212680243464B1C331A6069
:1034800006E0444A1C3212688243424B1C331A60E5
:10349000704739B13F4A2032126802433D4B203316
:1034A0001A6006E03B4A203212688243394B2033CF
:1034B0001A60704739B1374A243212680243354BDB
:1034C00024331A6006E0334A243212688243314BB7
:1034D00024331A60704739B12E4A2C3212680243E5
:1034E0002C4B2C331A6006E02A4A2C321268824395
:1034F000284B2C331A60704739B1264A3032126893
:103500000243244B30331A6006E0224A30321268FC
:103510008243204B30331A607047012808D11D497F
:103520003C31096841F008011A4A3C32116007E059
:1035300018493C31096821F00801164A3C321160F3
:10354000704739B1134A273A12780243114B273B8F
:103550001A7006E00F4A273A127882430D4B273B38
:103560001A7070470B484030006840F0807009497D
:1035700040310860704701460020064A283A126828
:103580000A400AB1012000E00020704701492639B5
:103590000870704734380240002041490860091D16
:1035A0000860091D0860091D08603E483C49143147
:1035B0000860704700213A498279002A3AD00A46C9
:1035C000126803689A430B461A600A1D1268036862
:1035D0009A430B1D1A60027911440A6803681A4362
:1035E0000A602F4A0832126803689A432C4B08334A
:1035F0001A601A1D126803689A43294B0C331A602B
:103600004279102A0ED11A1F126803681A43244BFC
:1036100008331A601A1D126803681A43204B0C33D2
:103620001A600DE01E49427911440A6803681A4382
:103630000A6005E0027911440A6803689A430A6047
:1036400070470021016001710C21417100218171DD
:1036500070471349103109680143114A1032116053
:103660007047014600200E4A143212680A400AB11F
:10367000012000E0002070470949143108607047BC
:1036800001460020064A143212680A400AB101209D
:1036900000E00020704702491431086070470000C4
:1036A000003C0140FFFF7F0010B50446FE48844205
:1036B00009D101214806FFF7B9FE00214FF0007043
:1036C000FFF7B4FE08E001218806FFF7AFFE0021F6
:1036D0004FF08060FFF7AAFE10BD30B50246002013
:1036E0000023146824F002041460146844F00104F8
:1036F000146000E05B1C546804F001041CB94FF630
:10370000FF74A342F6D1546804F001040CB9002000
:103710006CE08C79012C04D1146844F080041460AE
:1037200003E0146824F080041460CC79012C04D1E7
:10373000146844F04004146003E0146824F040046A
:1037400014600C7A012C04D1146844F02004146035
:1037500003E0146824F0200414604C7A012C04D196
:10376000146844F01004146003E0146824F010049A
:1037700014608C7A012C04D1146844F0080414609D
:1037800003E0146824F008041460CC7A012C04D1FE
:10379000146844F00404146003E0146824F0040482
:1037A00014608C78A407CD7844EA05640D7944EA66
:1037B00005444D7944EA05540D886D1E2C43D461AF
:1037C000146824F001041460002300E05B1C5468BA
:1037D00004F001041CB14FF6FF74A342F6D1546803
:1037E00004F001040CB1002000E0012030BD10B550
:1037F0000021837A012202FA03F1AC4A126842F0F6
:103800000102AA4B1A60A94A1C3212688A43A74BCC
:103810001C331A60027BCAB9A44A0C3212688A436C
:10382000A24B0C331A604288C38842EA03439F4A82
:103830004032847A42F834300288838842EA034373
:103840009A4A4032847A02EBC4025360027B012A16
:1038500019D1964A0C3212680A43944B0C331A6001
:103860004288038842EA0343904A4032847A42F80D
:103870003430C288838842EA03438C4A4032847AD7
:1038800002EBC4025360C27A3AB9884A121D126828
:103890008A43864B1B1D1A6006E0844A121D12687B
:1038A0000A43824B1B1D1A60028932B97F4A1432C7
:1038B00012688A437D4B14331A600289012A06D1AB
:1038C0007A4A143212680A43784B14331A60427BE6
:1038D000012A06D1754A1C3212680A43734B1C3305
:1038E0001A60724A126822F00102704B1A6010BD11
:1038F00000218171C171017241728172C172817046
:10390000C1700321017102214171012101807047C1
:103910006649096841F00101644A1160114609686D
:1039200043F60E729143614A11601146096841EAFB
:10393000002111601146096821F0010111607047F2
:1039400021B1026842F48032026003E0026822F48E
:10395000803202607047E1B1026842F0800202608A
:103960004FF4C272125842F480734FF4C272135073
:103970004FF4CA72125842F480734FF4CA72135053
:103980004FF4D272125842F480734FF4D272135033
:103990001BE0026822F0800202604FF4C2721258EB
:1039A00022F480734FF4C27213504FF4CA7212584B
:1039B00022F480734FF4CA7213504FF4D27212582B
:1039C00022F480734FF4D2721350704710B5024640
:1039D0000020936803F08063B3F1806F00D110E0A2
:1039E000936803F00063B3F1006F01D1012008E098
:1039F000936803F08053B3F1805F01D1022000E0AF
:103A00000420042879D002F5C07303EB00131B686F
:103A100003F0010402F5C07303EB00131C600B7A82
:103A20007BB94B7A0C8843EA445302F5C07404EB2B
:103A300000142468234302F5C07404EB00142360CF
:103A400010E00B7A4C6843EAC4034C7A234302F536
:103A5000C07404EB00142468234302F5C07404EB23
:103A6000001423608B7A03F00F038B7202F5C0738E
:103A700003EB00135B6823F00F0402F5C07303EB44
:103A800000135C6002F5C07303EB00135B688C7A73
:103A9000234302F5C07404EB001463608B7B1C06A7
:103AA0004B7B44EA034403E00064004000660040AE
:103AB0000B7B44EA0323CC7A234302F5C07404EB66
:103AC0000014A3608B7C1C064B7C44EA03440B7CF3
:103AD00044EA0323CC7B234302F5C07404EB0014B7
:103AE000E36002F5C07303EB00131B6843F00104AD
:103AF00002F5C07303EB00131C6010BD10B5024645
:103B0000002321B1012907D002290FD109E09068D3
:103B1000F94C00EA04030BE09068F84C00EA040357
:103B200006E09068F64C00EA040301E0002300BFC1
:103B300000BFF44C181BA34216D007DC83B16FF012
:103B40008060184470B1022818D111E0B0F5007FF0
:103B500010D0ED4C204448B1B0F5003F0ED10BE041
:103B600002230DE000230BE0002309E0002307E01F
:103B7000012305E0012303E0012301E0002300BF4E
:103B800000BFD8B210BD21B1012907D002290FD141
:103B900009E0826842F0800282600AE0826842F4B2
:103BA0000042826005E0826842F40002826000E028
:103BB00000BF00BF704710B500F5D87303EB0113C9
:103BC0001B6803F004031372137A53B900F5D8731A
:103BD00003EB01131B6840F2FF7404EA53531360B4
:103BE00009E000F5D87303EB01131B686FF0604424
:103BF00004EAD303536000F5D87303EB01131B6889
:103C000003F00203537200F5D87303EB01135B68F2
:103C100003F00F03937200F5D87303EB01135B6895
:103C20001B0AD37400F5D87303EB01139B68D3729E
:103C300000F5D87303EB01139B681C0A147300F59D
:103C4000D87303EB01139B681C0C547300F5D873F5
:103C500003EB01139B681B0E937300F5D87303EB02
:103C60000113DB68D37300F5D87303EB0113DB6832
:103C70001C0A147400F5D87303EB0113DB681C0CE9
:103C8000547400F5D87303EB0113DB681B0E9374B7
:103C900021B9C36843F02003C36003E0036943F024
:103CA0002003036110BD21B9C26842F02002C26046
:103CB00003E0026942F020020261704702460020E0
:103CC00019B9D36803F0030006E0012903D1136991
:103CD00003F0030000E00020704710B502460B46D9
:103CE00000204FF6FF71BBB9146824F0020444F0C1
:103CF0000104146000E0491E546804F00304012C20
:103D000001D00029F7D1546804F00304012C01D03C
:103D1000002032E0012030E0012B13D1146824F0A0
:103D20000304146000E0491E546804F003040CB15D
:103D30000029F8D1546804F003040CB100201CE001
:103D400001201AE0022B17D1146824F0010444F07A
:103D50000204146000E0491E546804F00304022CBD
:103D600001D00029F7D1546804F00304022C01D0DB
:103D7000002002E0012000E0002010BD01460020EC
:103D80000A6822F0010242F002020A604A6802F068
:103D90000302022A00D10120704701464FF6FF724C
:103DA00000200B6823F002030B6000E0521E4B68FA
:103DB00003F00203022B01D1002AF7D14B6803F074
:103DC0000203022B00D001207047014600208A69BF
:103DD00002F070007047014600208A69100E70479B
:103DE000014600208A69C2F3074070471AB143694F
:103DF0000B43436102E043698B434361704710B555
:103E00000246002001F4700343B19369C1F3130427
:103E100023400BB101202DE000202BE001F0807346
:103E200043B15368C1F3130423400BB1012021E0D7
:103E300000201FE001F0006343B19368C1F3130455
:103E400023400BB1012015E0002013E001F00073C6
:103E500043B1D368C1F3130423400BB1012009E03F
:103E6000002007E01369C1F3130423400BB10120C4
:103E700000E0002010BD0022244B994202D1002313
:103E8000836111E0C1F3130201F000730BB1C26052
:103E90000AE001F080630BB1026105E001F000630C
:103EA0000BB1826000E0426070470246002002EAE7
:103EB00001030BB1012000E00020704770B50446FB
:103EC0000D46002660692840002872D0B5F5807F35
:103ED00069D01DDC082D42D006DC012D2DD0022D2D
:103EE00031D0042D7FD134E0102D3ED0202D42D092
:103EF000402D78D145E000000300000400030008D5
:103F000000000310000100080001FFF77000F0300E
:103F1000B5F5004F61D009DCB5F5007F4AD0B5F5A5
:103F2000806F4DD0B5F5006F5DD150E0B5F5803FA5
:103F30002DD0B5F5003F56D12FE0A0685549FFF7C9
:103F4000B4FF064651E0E0680321FFF7AEFF0646E6
:103F50004BE0E0680821FFF7A8FF064645E0E0686F
:103F60001021FFF7A2FF06463FE020690321FFF77B
:103F70009CFF064639E020690821FFF796FF0646B8
:103F800033E020691021FFF790FF06462DE06068BE
:103F90000821FFF78AFF064627E060681021FFF737
:103FA00084FF064621E0A0690121FFF77EFF064657
:103FB0001BE01BE0A0690221FFF777FF064614E033
:103FC000A0690421FFF771FF06460EE00BE0A0692F
:103FD0007021FFF76AFF064607E060680421FFF7DB
:103FE00064FF064601E0002600BF00E000263046E0
:103FF00070BDB1F5007F3AD00FDC202928D006DC57
:1040000001291CD004291DD0082940D11DE04029D8
:1040100021D0B1F5807F3AD126E0B1F5004F31D003
:1040200006DCB1F5806F25D0B1F5006F2FD124E00B
:10403000B1F5803F12D0B1F5003F28D111E0154A0B
:10404000826025E00822C26022E01022C2601FE0E8
:10405000082202611CE01022026119E0082242607D
:1040600016E01022426013E00422426010E00422B5
:1040700042600DE0042242600AE0002282610422D4
:10408000426005E0002282610422426000E000BF3D
:1040900000BF704701010100016821F001010160CA
:1040A0000021016041608160C160016121214161A5
:1040B000DB49884204D13D21D94A103A91608CE015
:1040C000D7491831884205D14FF47461D44A103A67
:1040D000916082E0D2493031884205D14FF47411A9
:1040E000CF4A103A916078E0CD494831884205D1F5
:1040F0004FF07461CA4A103A91606EE0C84960316D
:10410000884204D1C749C64A103AD16065E0C44923
:104110007831884204D1C449C14A103AD1605CE088
:10412000BF499031884204D1C049BD4A103AD1609C
:1041300053E0BB49A831884205D14FF03D51B84A00
:10414000103AD16049E0BA49884204D13D21B84AC9
:10415000083A116041E0B6491831884205D14FF460
:104160007461B34A083A116037E0B149303188428E
:1041700005D14FF47411AE4A083A11602DE0AC49F4
:104180004831884205D14FF07461A94A083A11605C
:1041900023E0A7496031884204D1A249A44A121FF2
:1041A00011601AE0A2497831884204D19E49A04AA0
:1041B000121F116011E09E499031884204D19B4941
:1041C0009B4A121F116008E09949A831884204D126
:1041D0004FF03D51964A121F1160704710B50022F2
:1041E0000268944B1A40CC680B6823434C69234304
:1041F0008C692343CC6923430C6A23434C6A2343D1
:104200008C6A23434C6B23438C6B23431A43026019
:10421000426922F00702D1E90B3423431A43426179
:104220000B6943604B6883608B68C36010BD0021DD
:10423000016041608160C160016141618161C16172
:10424000016241628162C1620163416381637047BF
:1042500021B1026842F00102026003E0026822F02C
:1042600001020260704721B1026842F4004202601C
:1042700003E0026822F400420260704721B1026844
:1042800042F02002026003E0026822F02002026095
:104290007047416070470146486880B2704722B15C
:1042A000036843F40023036003E0036823F400235E
:1042B00003600161704721B1026842F4802202600C
:1042C00003E0026822F48022026070470AB10161B3
:1042D00000E0C1607047014600200A6802F4002235
:1042E0000AB1012000E000207047014600200A6862
:1042F00002F001020AB1012000E0002070470146EF
:1043000000204A6902F03800704730B503460A467B
:1043100000200024464DAB4202D24149103901E051
:104320004349103902F000550DB14C6800E00C68AB
:10433000414D2C4004EA02050DB1012000E00020AF
:1043400030BD02463A4B9A4202D23548103801E05D
:104350003748103801F000531BB1374B0B40C36096
:1043600002E0354B0B408360704710B501F08003CD
:104370004BB122B1436943F08003436103E04369D9
:1043800023F08003436180290BD02AB1036801F038
:104390001E042343036004E0036801F01E04A343EA
:1043A000036010BD70B50246002000240025204E99
:1043B000B24202D21A4B103B01E01D4B103B1F4E84
:1043C0000E4036B11E2606EAD124166806EA040518
:1043D00002E0566906F0800501F000560EB15C68F7
:1043E00000E01C68144E344004EA010616B10DB119
:1043F000012000E0002070BD02460D4B9A4202D21F
:104400000748103801E00A48103801F000531BB18A
:10441000094B0B40C36002E0074B0B4083607047C1
:10442000106002403D000020400F002000003D20B1
:10443000106402403F801CF07D0F7D0F3C0F3C0F4D
:1044400010B501210802FFF702F800214FF4807037
:10445000FEF7FDFF10BD30B5024600200023506876
:10446000F84C20400D790C6844EA05242043506044
:104470009068F54C2040D1E903542C438D682C43BF
:104480004D7944EA450420439060D06A20F47000DE
:104490000C7D641EE4B2234340EA0350D06230BD79
:1044A00000210160017141718160C16001610121E0
:1044B000017570470021E54A1168E54A1140D0E9CD
:1044C00000231A4383681A43C3681A431143E14A1D
:1044D000C2F8041370470021016041608160C1602F
:1044E000704721B1826842F00102826003E0826875
:1044F00022F00102826070470A4600214168D64BD3
:1045000019401143416070474162826270470A4618
:104510000021416821F01F0111434160704738B10B
:10452000CA49096841F40001CA4AC2F8041306E006
:10453000C649096821F40001C64AC2F8041370474D
:1045400038B1C249096841F48001C24AC2F8041373
:1045500006E0BE49096821F48001BE4AC2F804138E
:104560007047F0B504460D4600200021092D11DDED
:10457000E068A5F10A0606EB4607072606FA07F1EA
:104580008843A5F10A0606EB460603FA06F108433E
:10459000E0600CE0206905EB4507072606FA07F105
:1045A000884305EB450603FA06F108432061072A14
:1045B0000FDA606B561E06EB86071F2606FA07F118
:1045C0008843561E06EB860605FA06F1084360632B
:1045D00022E00D2A0FDA206BD61F06EB86071F2676
:1045E00006FA07F18843D61F06EB860605FA06F1A0
:1045F0000843206310E0E06AA2F10D0606EB86078F
:104600001F2606FA07F18843A2F10D0606EB86067F
:1046100005FA06F10843E062F0BD816841F080418F
:1046200081607047014600208A6802F080420AB12A
:10463000012000E00020704721B1826842F48062CE
:10464000826003E0826822F480628260704721B158
:10465000826842F00202826003E0826822F0020275
:104660008260704710B50A4600210023416821F49A
:104670006041531E41EA4331416010BD21B142689F
:1046800042F40062426003E0426822F40062426049
:1046900070470146C86C80B270476C48001D0068C6
:1046A000704721B1826842F48072826003E08268C0
:1046B00022F480728260704721B1826842F40072F5
:1046C000826003E0826822F400728260704738B131
:1046D0005E49096841F400515E4AC2F8041306E0DD
:1046E0005A49096821F400515A4AC2F80413704724
:1046F000F0B504461546002000220026092911DDE8
:10470000E068A1F10A0707EB470C072707FA0CF24C
:104710009043A1F10A0707EB470703FA07F210439A
:10472000E0600CE0206901EB410C072707FA0CF26E
:10473000904301EB410703FA07F210432061A06B9D
:10474000C0F30156EF1C06F1010CA7EB0C0707EBB9
:10475000870C1F2707FA0CF29043EF1C06F1010C9F
:10476000A7EB0C0707EB870701FA07F21043A063DA
:10477000F0BD10B50A4600210023816B21F44011E1
:10478000531E41EA0351816310BD08B50023009315
:104790000090009B0B440093009B1A6008BD0A46E2
:1047A0000021816821F470211143816070470A461D
:1047B0000021816821F440111143816070478168B4
:1047C00041F4800181607047014600208A6802F44C
:1047D00080020AB1012000E00020704721B1426848
:1047E00042F48062426003E0426822F480624260E8
:1047F000704721B1426842F48052426003E042684F
:1048000022F480524260704708B5024600200090B2
:10481000009201F12800009B184400900098006865
:1048200080B208BD10B50B460021D9B2012404FAAC
:1048300001F11AB144680C43446002E044688C43BF
:10484000446010BDFFFEFFFCFDF7FFC004230140E4
:10485000E030FCFF00200140FFFD3FFF024600204A
:1048600013680B400BB1012000E000207047CA43E1
:104870000260704770B502460020002300240B122E
:10488000556801268E4005EA060415681D4015B1DD
:104890000CB1012000E0002070BD00220A12D343B9
:1048A0000360704710B50446FB48844208D10121DB
:1048B0008014FEF7CCFD0021A014FEF7C8FD3CE0FB
:1048C000F648844208D101210014FEF7AFFD002113
:1048D0002014FEF7ABFD30E0F148844208D10121FD
:1048E000C013FEF7A3FD0021E013FEF79FFD24E0B7
:1048F000EC48844208D101214014FEF7A8FD0021B4
:104900006014FEF7A4FD18E0E748844209D10121B4
:104910000805FEF79CFD00214FF48010FEF797FD7F
:104920000BE0E248844208D101214805FEF78FFDE3
:1049300000214FF40010FEF78AFD10BD10B50022D3
:10494000028802F441520B884C8823438C8823430D
:10495000CC8823430C8923434C8923438C892343EC
:10496000CC8923431A430280838B4FF2FF74234088
:1049700083830B8A038210BD2DE9F04F00250223AB
:1049800000244FF00109002200260027944690469B
:10499000B0F81CA04FF2400B0AEA0B0AA0F81CA0CA
:1049A0004FF0020AA0F820A0858BD1F808A0BAF138
:1049B000020F01D100BF82E0B1F804A0BAF1000FEC
:1049C00002D14FF0010901E04FF00209DFF8E0A247
:1049D000DAF800A00AF4000ABAF1000F09D0DFF8F3
:1049E000D0A2DAF800A02AF4000ADFF8C4B2CBF8AB
:1049F00000A0DFF8BCA20AF17C0ADAF800A0CAF332
:104A0000881CDFF8ACA20AF17C0ADAF800A0CAF32D
:104A10000278DFF89CA2AAF1040ADAF800A00AF0F2
:104A20003F07DFF88CA2AAF1040ADAF800A00AF422
:104A3000800ABAF5800F08D1DFF878A2BAFBF7FA3E
:104A40000AFB0CFABAFBF8F607E0DFF86CA2BAFB37
:104A5000F7FA0AFB0CFABAFBF8F6B1F806A0BAF5B9
:104A6000007F0ED14FEA162A0AEB8A0A4FEA4A0A59
:104A7000D1F808B0BAFBFBFA0AF1050A1FFA8AF26C
:104A80000FE04FEA491AB6FBFAFA0AEB8A0A4FEA34
:104A90004A0AD1F808B0BAFBFBFA0AF1050A1FFA74
:104AA0008AF24FF00A0AB2FBFAF202F00104A2EB1A
:104AB000040ACAF34F034FF6FF7A0AEA0424022BD2
:104AC00001DBFF2B01DD02230024B1F806A04AEA36
:104AD000040A4AEA030AA0F820A0B1F804A0B1F839
:104AE0000CB04AEA0B0AB1F802B04AEA0B0AB1F874
:104AF00000B04AEA0B0A4AF4006A4AEA05058583CF
:104B0000BDE8F08F0021018041808180C18001815A
:104B100041818181C181072101827047002101808B
:104B200041808180C18002218160002181817047A4
:104B300021B1028842F04002028004E002884FF670
:104B4000BF731A400280704721B1828B42F48062A9
:104B5000828304E0828B4FF6FF331A4082837047D2
:104B600002884FF2FF731A40028002880A430280D3
:104B70007047B1F5804F04D1028842F48042028030
:104B800004E002884BF6FF731A40028070474FF62C
:104B9000FF62914204D0028842F48072028004E0F5
:104BA00002884FF6FF631A400280704721B1828865
:104BB00042F00402828004E082884FF6FB731A40C0
:104BC0008280704721B1828842F01002828004E026
:104BD00082884FF6EF731A408280704730B500220A
:104BE0000023848B4FF240052C40848302240484EC
:104BF000828B0C88B4F5007F01D00C8814B94FF477
:104C0000807308E00C88B4F5407F03D00C88B4F5BD
:104C1000807F00D100238C888D892C434D882C43C4
:104C20001C4344F400642243828330BD01468889DA
:104C300070478181704721B1028842F4005202809E
:104C400004E002884DF6FF731A4002807047018825
:104C500041F480510180704702460020012901D0B3
:104C6000108B00E0908A70470146088A70471AB19D
:104C700083880B43838002E083888B438380704763
:104C800030B5002400230C110125A540ABB2AAB118
:104C900085881D43858014E00030014000380040C5
:104CA000003C0040003401400050014000540140ED
:104CB0000838024040787D010024F40085889D4337
:104CC000858030BD0246002013890B400BB10120C6
:104CD00000E000207047CA4302817047F0B50246E9
:104CE000002000240023002501F00F070126BE400C
:104CF000B4B20B1101269E40B3B2968806EA0305B2
:104D00001689264016B10DB1012000E00020F0BD4B
:104D100010B5002201F00F040123A3409AB2D3433F
:104D2000038110BD704700000FB4044910B503AAF9
:104D3000029800F0D3F810BC5DF814FB6800002066
:104D40002DE9F0410E460446002020622046E1682D
:104D5000884730B3252805D0D4E901219047206A3F
:104D6000401CF2E7E168204600278847050018D07C
:104D7000A5F14100192802D820354FF400673246CA
:104D8000294620462760FBF739FA40B1012804D0B4
:104D9000F61D26F007060836D8E7361DD6E7284662
:104DA000DAE7206ABDE8F0812DE9F04106460024EB
:104DB00010687529314616A510D0AFF30080002881
:104DC00002DA404213A507E031688A0701D512A52F
:104DD00002E0490704D511A5012401E0AFF30080EA
:104DE00000210A2206F1240709E0B0FBF2FCB0FB27
:104DF000F2F302FB1C00303078541846491C00289E
:104E0000F3D123462A463046BDE8F04100F00CB805
:104E1000000000002D0000002B000000200000001A
:104E200070477047704770472DE9F0470D46994627
:104E30009246044600F124080168880604D5E0691A
:104E400021F01001216000E00120A84201DD471B94
:104E500000E00027A1697A1902EB0900081AA06195
:104E60002078C00602D42046AFF30080002608E078
:104E7000D4E901211AF806009047206A401C761CEC
:104E800020624E45F4DB2078C0060AD52046AFF3F9
:104E9000008006E0D4E9012130209047206A401CC0
:104EA0002062381EA7F10107F4DC07E0D4E90121F4
:104EB00018F805009047206A401C2062281EA5F1C2
:104EC0000105F3DC2046AFF300802078000602D510
:104ED0000220BDE8F0870120FBE70000074B70B51A
:104EE0000D467B4400F011F80446284600F020F8F7
:104EF00010B14FF0FF3070BD204670BDD1C9FFFF2B
:104F000001694A1C02610878704700B58FB0CDE98D
:104F100001310021059105497944CDE9031011467D
:104F20006846FFF70DFF0FB000BD0000E5FFFFFF73
:104F3000007B00F080007047754600F029F8AE460F
:104F400005006946534620F00700854618B020B595
:104F5000FCF762FDBDE820404FF000064FF000076F
:104F60004FF000084FF0000B21F00701AC46ACE811
:104F7000C009ACE8C009ACE8C009ACE8C0098D467E
:104F800070470446AFF300802046FBF74BF9000062
:104F9000004870479001002010B591EA030F48BF08
:104FA00083F0004300F1EC81841A71EB030C05D20D
:104FB000121943EB0C03001B61EB0C01DFF824E139
:104FC0004FEA1154A4EB135C1EEA430F18BF9EEA8C
:104FD000445F73D023EA0E03DCF1200E21EA045172
:104FE00043F4801332D322FA0CFE10EB0E0023FAA6
:104FF0000CFE41EB0E01CCF1200E03FA0EFE10EB7D
:105000000E0051F10001B1F5801FCCF1200E32D21B
:1050100001EB045112FA0EF2BDE8104058BF704780
:10502000401C38BF5FEA420218BF7047002814BF17
:1050300020F0010041F100014FEA410313F5001F88
:1050400038BF7047A1F1C04100F08CB9012A43EB91
:105050000302ACF1200CDCF11F0E32BF4FF0000E4A
:1050600023FA0CF310EB030041EB0451B4EB115F96
:10507000D0D0A1EB045101F5801149085FEA30005E
:1050800001EB04510ED350F1000038BF12FA0EFEAE
:1050900008D1BDE81040C9E7401C38BF5FEA4202B2
:1050A000CAD1C3E7BDE810404FEA410313F5001F22
:1050B00038BF7047A1F1C04100F054B99EEA445F87
:1050C00008D011EA5E0FBDE8104004BF01F00041B6
:1050D00000207047BDE8104070B500F0F5F800BF43
:1050E00064FBBE3E0000E0FF4FEA41034FEA53532A
:1050F000A3F58063D3F11E03C8BFD3F1210C0CDDEF
:105100004FF0004242EAC12242EA505232FA03FC16
:105110008CEAE17CACEBE1707047102BC4BF00203F
:10512000704703F5787CBCF1FF3F04D06FF000427C
:1051300082EA2100704770B500F0C6F849922480D9
:1051400000207047F2E710F0004248BF4042B0FA3A
:1051500080F310FA03F10AD0C3F11D0303F5806355
:105160004FEA415002EB035202EBD12170474FF05E
:1051700000007047DFF848C170B51CEA111E1EBF61
:105180001CEA13159EEA0C0F95EA0C0F00F06F80D5
:1051900081EA030423EA4C134EEAD47E21EA4C113F
:1051A00041F4801143F48013AE44A1FB024CA0FBF8
:1051B0000365AEF17F7E361955EB0C05A1FB034C60
:1051C0004CF10003A0FB021C16EB0C06654153F1E9
:1051D0000003094218BF46F0010613F4007F0BD10B
:1051E0004FEA03314FEA0530340341EA155140EAF2
:1051F00016506FF003020AE04FEAC3214FEAC520C0
:10520000F40241EA555140EA56506FF0020202EBB7
:105210002E4201EB025585EACE710AD05FEA440CBA
:1052200018BF24F0004450F1000041F1000120EAD1
:10523000D47040F2FE7C624500D270BDA84214BF1B
:105240004FF080444FF04044002E08BF0024BEF1D0
:10525000806FA8BFA1F1C041BDE8704080F282809C
:105260004FF0000001F1C04101F0004170479EEA9B
:105270000C0F0CEA131518BF95EA0C0F06D04FF06F
:10528000000081EA030E0EF0004170BD00F01CF832
:105290008900013E00F007B800F009B84FEA430C5E
:1052A0005FEA5C5C08D081EA030100F05BB84FEA7A
:1052B000410C5FEA5C5CF6D14FF000000149704799
:1052C0000000FF070000F87F0EF1020E2EF0030E23
:1052D0005EF8046B364205D4012A43EB030515F54D
:1052E000001F12D8012841EB010C1CF5001F0CD83F
:1052F0000ED14FEAD17C15F5001F0CEB4C0C0CF1D4
:10530000020C08BF4CEBD37C04E04FF0080C01E02A
:105310004FEAD37C0CEB4C0526FA05F606F007069F
:10532000B6F1040C06D20EEB860CBDE870404CF0D2
:10533000010C6047DFE80CF0090B02024FF000415E
:105340004FF00000A1F5002170BD1946104601285C
:1053500051EB010418BFD4F5001484BF002001F004
:10536000004170BD0808A0F500114FEA31017047F7
:1053700010B591EA030F48BF83F000433FF514AE28
:10538000841A71EB030C07D212198CF0004C43EB1A
:105390000C03001B61EB0C01DFF8A4E14FEA115490
:1053A000A4EB135C1EEA430F18BF9EEA445F00F0B3
:1053B000B08023EA6E03524221EA0451C3EB6E032C
:1053C00038BF5B1EDCF1200E25D322FA0CFE10EB59
:1053D0000E0043FA0CFE41EB0E01CCF1200E03FA55
:1053E0000EFE10EB0E0051F10001CCF1200E29D47D
:1053F00012FA0EF201EB0451BDE8104058BF70479D
:10540000401C1CBFB2F1004F704700280CBF491C64
:1054100020F00100704712EB020E43EB030218BFAD
:105420004FF0010E4EEA4202ACF1200CDCF11E0EF0
:1054300054D943FA0CFE10EB0E0051F1FF31CCF1C0
:105440001E0ED5D50EF1010E12FA0EFE404141EBB3
:10545000010101EB445C5FEA5C5C10D910EBDE708B
:1054600001EB045138BFBEF1004FBDE8104018BF3A
:10547000704700280CBF491C20F00100704730D253
:105480004FEAD42C11F5001124F400641BD0B1FABA
:1054900081F20B3AA41AA41ED2F12003914030FAF3
:1054A00003F31943904001EBCC71002C01EB045144
:1054B000BDE81040A8BF704701F1C0414FF00000A7
:1054C00001F000417047B0FA80F310FA03F100D107
:1054D00010BDE41A173C4805C90AE4E701EB045182
:1054E00010BD491001EB0451BDE810404FEA3000F7
:1054F00002E04FF0000170474A0008BF0042F8D0B8
:10550000B2F5001F28BF704701F000414FF00000C6
:1055100070479EEA445F07D011EA5E0FBDE8104075
:1055200004BF002100207047BDE8104070B5FFF7B0
:10553000CBFE00BF40DFF63E83F0004110467047CF
:105540000000E0FF4FF04070E1EE100A70470000ED
:10555000705500080000002080000000C401000811
:10556000F05500088000002070070000E0010008EE
:10557000E80300000001000000000000000000003F
:10558000000000000000000000000000000000001B
:10559000000000000000000000000000000000000B
:1055A00000000000000000000000000000000000FB
:1055B000007A030A0000000000000000010203045A
:1055C00006070809000000000000010000000000BC
:1055D00000000000000000000000000000000000CB
:1055E0000000010203040102030406070809000089
:040000050800018965
:00000001FF
