:020000040800F2
:10000000E80700209D170008FD060008FF0600080D
:1000100003070008070700080B070008000000009E
:100020000000000000000000000000000F070008B2
:10003000110700080000000013070008150700085A
:10004000B7170008B7170008B7170008B717000858
:10005000B7170008B7170008B7170008B717000848
:10006000B7170008B7170008B7170008B717000838
:10007000B7170008B7170008B7170008B717000828
:10008000B7170008B7170008B7170008B717000818
:10009000E7110008B7170008B71700089F0200080B
:1000A000B7170008B7170008B7170008B7170008F8
:1000B000FD13000893140008B7170008B7170008CD
:1000C000B7170008B7170008B7170008B7170008D8
:1000D000B717000811170008B7170008B71700086E
:1000E000B7170008B7170008B7170008B7170008B8
:1000F000B7170008B7170008B7170008B7170008A8
:10010000B7170008B7170008B7170008B717000897
:10011000B7170008B7170008B7170008B717000887
:10012000B7170008B7170008B7170008B717000877
:10013000B7170008B7170008B7170008B717000867
:10014000B7170008B7170008B7170008B717000857
:10015000B7170008B7170008B7170008B717000847
:10016000B7170008B7170008B7170008B717000837
:10017000B7170008B7170008B7170008B717000827
:10018000B7170008B717000800F002F800F041F8B0
:100190000AA090E8000C82448344AAF10107DA45E2
:1001A00001D100F036F8AFF2090EBAE80F0013F0F3
:1001B000010F18BFFB1A43F001031847A8440000C1
:1001C000C8440000103A24BF78C878C1FAD8520752
:1001D00024BF30C830C144BF04680C6070470000C1
:1001E0000023002400250026103A28BF78C1FBD840
:1001F000520728BF30C148BF0B607047642903F025
:100200005D86002070471FB504F026FA1FBD10B5AB
:1002100010BD03F01BFF1146FFF7F5FF00F008F8D3
:1002200003F039FF03B4FFF7F2FF03BC01F010FA4B
:1002300001F088F8F7A003F001FEFEA003F0FEFD38
:1002400001F04CF9172000F04BFA00BFFEE710B5A3
:100250004021FE4801F01AFC012801D1FC49087038
:10026000FB480078012817D1FA480079B0B94FF45B
:100270008051F94801F026FC0120F6490871002060
:10028000886088814FF44870F4490880172000F096
:1002900027FA01F023F901E000F00FFE10BD10B5C0
:1002A000802003F0BDF820B1802003F0C4F801F0F5
:1002B00015F94FF4807003F0B3F828B14FF4807053
:1002C00003F0B9F801F00AF94FF4007003F0A8F850
:1002D00028B14FF4007003F0AEF801F0FFF810BD44
:1002E0000020DF49086248629FEDDE0B084680ED82
:1002F000020B9FEDDE0B80ED040B9FEDDE0B80ED1E
:10030000060BD44800680860704770B52DED0C8B63
:100310000446D3480068051BD149486A03F09DFF95
:1003200041EC1B0BCE4890ED061BB0EE410AF0EEFF
:10033000610A53EC102B51EC1B0B03F0A5FF41ECB1
:10034000190BC749086A03F088FF41EC1D0BC4482C
:1003500090ED041BB0EE410AF0EE610A53EC102B55
:1003600051EC1D0B03F090FF41EC1B0B284603F0F2
:1003700074FF41EC1D0BBA4890ED021BB0EE410A30
:10038000F0EE610A53EC102B51EC1D0B03F07CFFD7
:1003900041EC1C0B53EC1B2B04F074F841EC1A0BD2
:1003A00053EC192B03F082FE41EC180B03F026FFEF
:1003B0000646AB48006AAA494862084605623046CC
:1003C000BDEC0C8B70BD70B5A2488089401CA14962
:1003D00088810846007901280DD1A8480088401C72
:1003E000A64908809B488089B0F5FA6F06DD002099
:1003F0009849087102E00020A04908809F480088C1
:1004000032284CDD9E480078012828D19148806828
:10041000322100FB01F52846FFF777FF044604EB85
:1004200084004000192190FBF1F48C48008820449E
:10043000462803DA4620894908802AE08748008850
:100440002044B0F57A7F04DD4FF47A708349088048
:100450001FE08248008820448049088019E07D48D8
:10046000006800EB80004000192190FBF1F07B490F
:10047000088008460088462802DA4620088008E0FE
:1004800076480088B0F57A7F03DD4FF47A707349BF
:1004900008800020794908806E49886000BF70BDDF
:1004A00030B502460023774804780078401C754D2B
:1004B0002870754840F8242028460078052802D185
:1004C00000202C4620700023002105E06E4850F8E3
:1004D00021000344481CC1B20529F7DB0520B3FB0A
:1004E000F0F030BD70B50446002C0EDD254604EB5F
:1004F000D5714810FFF7F6FF254604EBD570401084
:10050000A4EB400161A003F099FC70BD00B585B07B
:100510000021022002F0BCFD8020039000208DF815
:10052000100003A95A4801F04FFA4FF4807003906D
:1005300003A9574801F048FA4FF40070039003A94B
:10054000534801F041FA00214FF4804002F0FAFDD7
:100550000721012002F089FB0821012002F085FB20
:100560000921012002F081FB4FF46070019000200E
:100570008DF8080010208DF8090000208DF80A0081
:1005800001A802F0E7FE17208DF8000000208DF88A
:1005900001008DF802008DF80300684601F023F990
:1005A000684601F020F905B000BD30B58BB00446B7
:1005B0000D460121084602F0C5FD0121084602F062
:1005C00067FD01220821334801F089FA4FF4807059
:1005D000099002208DF8280003208DF829000020C2
:1005E0008DF82A0001208DF82B0009A9294801F077
:1005F000EBF9A8B2ADF818000020ADF81A00079486
:10060000ADF8200006A9244801F079FD6020ADF87E
:10061000040043E02A2A2A20424C444320436F6EC0
:1006200074726F6C20626F617264202A2A2A0D0A2C
:1006300000000000446174653A32303230303332A9
:10064000302056312E30200D0A00000000080240F4
:100650001A00002000000020000C0240580000207A
:1006600080000020000000000000E03FB81E85EB85
:1006700051B8AE3F00000000000000004000002024
:100680001000002042000020A80000202564000087
:100690000004024000000240000001400120ADF8CB
:1006A00006000220ADF810000020ADF814004FF451
:1006B000FA60039001A9104801F0B6FD08210E4828
:1006C00001F03FFF01210C4801F084FD01210A489F
:1006D00001F09EFD0121084802F08BF90BB030BDFE
:1006E00000F01F02012191404209920002F1E02234
:1006F000C2F800117047000000000140704700BFC1
:10070000FEE700BFFEE700BFFEE700BFFEE7704761
:1007100070477047704700000CB5002001900090B2
:100720007648006840F480307449086000BF734820
:10073000006800F4003000900198401C019000987F
:1007400018B90198B0F5A04FF1D16C48006800F4D9
:10075000003010B10120009001E0002000900098CE
:10076000012846D165484030006840F08050634918
:10077000403108606248006840F4404060490860C9
:100780005E48083000685D49083108600846006826
:1007900040F4004008600846006840F4A05008603B
:1007A0005848091F0860081F006840F08070091F42
:1007B000086000BF5148006800F000700028F9D0C0
:1007C00040F20570504908604C480830006820F03D
:1007D00003004A49083108600846006840F00200FA
:1007E000086000BF45480830006800F00C00082889
:1007F000F8D10CBD10B54548006840F4700043497D
:1008000008603E48006840F001003C490860002054
:100810003A4908310860394800683D49084037497D
:1008200008603C48091D0860081F006820F480200B
:10083000091F0860002031490C310860FFF76CFF88
:100840004FF0006031498039086010BD70B500205C
:100850000022022300240221284D08352D6805F0CE
:100860000C0020B1042806D0082834D107E02A4D16
:100870002A4E356033E02A4D284E35602FE01F4D5B
:100880002D1D2D68C5F380541C4D2D1D2D6805F0C0
:100890003F0154B1224DB5FBF1F5184E361D3668B7
:1008A000C6F3881605FB06F209E01B4DB5FBF1F512
:1008B000124E361D3668C6F3881605FB06F20F4D3C
:1008C0002D1D2D68C5F301456D1C6B00B2FBF3F5C2
:1008D000124E356003E0104D104E356000BF00BF72
:1008E000064D08352D68C5F303150E4E705D0B4D92
:1008F0002D68C540094E356070BD000000380240CB
:100900000070004019544007003C024088ED00E0B0
:10091000FFFFF6FE103000240024F4004400002005
:1009200040787D014800002010B50821044801F0FE
:10093000C9F84FF4F041024801F0C2F810BD0000C0
:10094000000C02401CB50121102002F0A1FB4FF465
:100950007C50009002208DF8040000208DF80600E5
:1009600003208DF8050000208DF807006946FC483B
:1009700001F02AF801220921F94801F0B0F801221A
:100980000B21F74801F0ABF801220D21F44801F0EA
:10099000A6F801220821F24801F0A1F801220A215B
:1009A000EF4801F09CF801220C21ED4801F097F886
:1009B0001CBD00B58DB00121084602F0C3FBE9481B
:1009C00001F0F0FAE8480068A821B0FBF1F044F625
:1009D0002061B0FBF1F080B20B90A720ADF82800A9
:1009E0000020ADF83000ADF82A008DF832000AA9D9
:1009F000DC4801F084FB7020ADF814000120ADF854
:100A000016000420ADF81800D7480068A821B0FBF4
:100A1000F1F044F62061B0FBF1F080B207900020C5
:100A2000ADF82000ADF82200ADF82400ADF82600A6
:100A300005A9CC4801F0F8FBCB480068A821B0FB21
:100A4000F1F044F62061B0FBF1F080B2079005A907
:100A5000C44801F022FCC4480068A821B0FBF1F0B2
:100A600044F62061B0FBF1F080B2079005A9BD48C3
:100A700001F060FC0020ADF80400ADF80600ADF810
:100A80000800DF20ADF80A000020ADF80C004FF49C
:100A90000050ADF80E004000ADF810000020ADF899
:100AA0000600ADF8040001A9AE4801F089FF082155
:100AB000AC4801F046FD0821AA4801F04BFD082191
:100AC000A84801F054FD0121A64801F083FB012153
:100AD000A44801F09DFB0121A24801F08AFF0022F9
:100AE0001146A04801F002FE002211469D4801F087
:100AF0000CFE002204219B4801F0F8FD0022042195
:100B0000984801F002FE00220821964801F0EEFD0F
:100B100000220821934801F0F8FD0DB000BD10B58A
:100B20004FF42F7091490880FFF70CFFFFF741FF4A
:100B300010BD70B50446072C7ED2DFE804F07DCCF2
:100B4000468AFEFD040000221146864801F0CEFDD3
:100B500000221146834801F0D8FD0022042181487B
:100B600001F0C4FD002204217E4801F0CEFD0022E8
:100B700008217C4801F0BAFD00220821794801F0E3
:100B8000C4FD79480068A821B0FBF1F044F620616B
:100B9000B0FBF1F080B27549098848434FF47A718F
:100BA00090FBF1F529466F4801F099FC01220421E0
:100BB0006C4801F09BFD00216A4801F092FC042280
:100BC0000821684801F0A1FD75E100221146654841
:100BD00001F08CFD00221146624801F096FD0022D2
:100BE0000421604801F082FD002204215D4801F0EB
:100BF0008CFD002208215B4801F078FD00220821CD
:100C0000584801F082FD0021564801F066FC04229C
:100C10000021544801F079FD53480068A821B0FB39
:100C2000F1F044F62061B0FBF1F080B24F49098841
:100C300048434FF47A7100E01EE190FBF1F529463C
:100C4000484801F04CFC01220421464801F04EFDC9
:100C500031E100221146434801F048FD00221146CF
:100C6000404801F052FD002204213E4801F03EFDC3
:100C7000002204213B4801F048FD002208213948A8
:100C800001F034FD00220821364801F03EFD00212C
:100C9000344801F022FC04220021324801F035FDE5
:100CA00031480068A821B0FBF1F044F62061B0FBA8
:100CB000F1F080B22D49098848434FF47A7190FBD6
:100CC000F1F52946274801F00CFC012208212548AE
:100CD00001F00CFDEFE000221146224801F006FD74
:100CE000002211461F4801F010FD002204211D487A
:100CF00001F0FCFC002204211A4801F006FD00224C
:100D00000821184801F0F2FC00220821154801F0E2
:100D1000FCFC0021134801F0E2FB042211461148BB
:100D200001F0F3FC10480068A821B0FBF1F044F694
:100D30002061B0FBF1F001E01AE05BE080B20B490A
:100D4000098848434FF47A7190FBF1F5294605482C
:100D500001F0C7FB01220821024801F0C7FCAAE00C
:100D60000010024000000140440000205800002014
:100D7000002211467C4801F0B9FC002211467A4855
:100D800001F0C3FC00220421774801F0AFFC0022EF
:100D90000421754801F0B9FC00220821724801F0D5
:100DA000A5FC00220821704801F0AFFC6F480068E4
:100DB000A821B0FBF1F044F62061B0FBF1F080B265
:100DC0006B49098848434FF47A7190FBF1F5294645
:100DD000654801F082FB01220021634801F086FC96
:100DE0000021614801F07BFB042211465E4801F0BE
:100DF0008CFC60E0002211465B4801F077FC002289
:100E00001146594801F081FC00220421564801F0A6
:100E10006DFC00220421544801F077FC00220821D7
:100E2000514801F063FC002208214F4801F06DFC9D
:100E30004E480068A821B0FBF1F044F62061B0FBF9
:100E4000F1F080B24A49098848434FF47A7190FB27
:100E5000F1F52946444801F040FB012200214248B7
:100E600001F044FC0021404801F03BFB0422082132
:100E70003D4801F04AFC1EE0002211463A4801F0CC
:100E800035FC00221146384801F03FFC00220421C5
:100E9000354801F02BFC00220421334801F035FCD9
:100EA00000220821304801F021FC002208212E48B0
:100EB00001F02BFC00BF00BF70BD10B54FF4607097
:100EC00002F0B9FA1720012181402A4A430942F869
:100ED000231000BF00221146234801F007FC002226
:100EE0001146214801F011FC002204211E4801F0A6
:100EF000FDFB002204211C4801F007FC0022082110
:100F0000194801F0F3FB00220821174801F0FDFB0E
:100F1000052000F07DFB04220021134801F0F5FBC1
:100F200004221146104801F0F0FB042208210E486B
:100F300001F0EBFB00BF10488089B0F5C86FFADB09
:100F400000221146084801F0E0FB00220421064877
:100F500001F0DBFB00220821034801F0D6FB002052
:100F60000549087110BD0000000001404400002048
:100F70005800002080E100E0000000201CB50121A5
:100F8000102002F085F84FF44050009001208DF8B9
:100F9000040000208DF8060003208DF805000120D4
:100FA0008DF807006946404800F00EFD4FF44051AF
:100FB0003D4800F087FD1CBD1CB50121082002F052
:100FC00067F847F60800009001208DF80400002023
:100FD0008DF8060003208DF8050001208DF807002C
:100FE0006946324800F0F0FC1CBD00B585B0012117
:100FF000022002F04DF88020039000208DF81000B0
:1010000001208DF8130003A9294800F0DDFC4FF4FE
:101010008070039000208DF8100001208DF81300DF
:1010200003A9234800F0D0FC4FF400700390002087
:101030008DF8100001208DF8130003A91C4800F062
:10104000C3FC0121880302F07DF80721012001F093
:101050000CFE0821012001F008FE0921012001F009
:1010600004FE4FF46070019000208DF808001020FD
:101070008DF8090001208DF80A0001A802F06AF934
:1010800017208DF8000000208DF801008DF8020077
:1010900001208DF80300684600F0A5FB684600F0CB
:1010A000A2FB05B000BD000000100240000C024091
:1010B0000004024000B589B00121082001F0E8FFDA
:1010C0000121480602F02DF80320079002208DF838
:1010D000200000208DF8220003208DF8210001203F
:1010E0008DF8230007A9554800F06EFC0922002165
:1010F000524800F0F4FC09220121504800F0EFFCB6
:1011000000208DF816008DF817008DF818008DF866
:1011100019008DF81A008DF81B008DF812008DF85B
:10112000130009208DF8140006208DF81500042006
:10113000ADF8100004A9424802F09FF900208DF894
:101140000A008DF80B0001208DF80C000020ADF88E
:1011500000004FF40970ADF802004FF6FF70ADF8D3
:101160000400ADF806000020ADF8080001208DF85D
:101170000D00684602F00BFA002009B000BDF0B582
:1011800085B006460F4600240020009001968DF899
:1011900008008DF8090008208DF80A0000BF05E05E
:1011A000395D0DF10B000155601C84B2082CF7DB92
:1011B0006946234802F0DAFA0546002401E0601C83
:1011C00084B229461E4802F069FB18B940F6FF7048
:1011D0008442F4DB40F6FF70844202DB012005B05C
:1011E000F0BD0020FBE700B585B000200090019025
:1011F0008DF808008DF80A008DF813008DF80B00AB
:101200006A4600210E4802F0A6FB019844280CD142
:101210009DF80B000B4908709DF80C0048709DF874
:101220000D0088709DF80E00C870012006490870F6
:101230000221034802F0ADFD05B000BD000C0240E4
:10124000006400405A0000205E0000201CB501210F
:10125000042001F01DFF4FF47070009000208DF805
:10126000040003208DF8050001208DF80700694671
:10127000304800F0A9FB1CBD10B5044614B1012094
:101280002D4908702C480078002837D010212B48B1
:1012900000F0FCFB78B10821284800F0F7FB50B1C2
:1012A0000421264800F0F2FB28B10121244800F077
:1012B000EDFB012822D10A2000F0AAF900201E49E6
:1012C000087010211D4800F0E1FB08B9012010BD95
:1012D00008211A4800F0DAFB08B90220F7E70421D8
:1012E000164800F0D3FB08B90320F0E701211448A9
:1012F00000F0CCFB01281BD10420E8E710210F48A7
:1013000000F0C4FB012813D108210C4800F0BEFBFB
:1013100001280DD10421094800F0B8FB012807D1AC
:101320000121074800F0B2FB10B901200249087002
:101330000020CCE7000802405F00002000100240BF
:101340000000024010B5FFF755FAA82000F0FEF8A3
:10135000FFF732FEFFF7E8FA0A2000F059F9FFF72D
:1013600075FFFFF742FE00F043F8FFF7D8FB4FF49C
:10137000E13000F07BF94FF4A06000F02FFA10BDCF
:101380000EB50121084601F0CCFE4FF0804000F080
:1013900009FE0920019044F29F10ADF800000020E2
:1013A000ADF80800ADF8020069464FF0804000F04B
:1013B000A6FE0121880701F057FB01221146900784
:1013C00001F03EFB0121880700F022FF0EBD08B5A9
:1013D0001C208DF8000001208DF8010002208DF8FE
:1013E000020001208DF80300684600F0FCF908BDFA
:1013F00010B5FFF7ECFFFFF7C3FF10BD10B50121DB
:10140000880701F034FB28B10121880701F040FB77
:10141000FEF7D9FF10BD00000EB50121022001F03A
:1014200080FE464800F0BEFD47F22F50019044F286
:101430009F10ADF800000020ADF80800ADF80200E4
:1014400069463E4800F05BFE01213C4801F00CFB80
:1014500001221146394801F0F3FA0121374800F022
:10146000D7FE0EBD08B51D208DF8000001208DF8B7
:10147000010002208DF8020001208DF8030068466B
:1014800000F0B1F908BD10B5FFF7ECFFFFF7C4FF9E
:1014900010BD10B50121294801F0E9FAE8B180201A
:1014A00001F0BEFF08B1012400E000244FF4807079
:1014B00001F0B6FF08B1012000E0002004434FF422
:1014C000007001F0ADFF08B1012000E000200443EE
:1014D0001CB10121194801F0DBFA10BD38B500201C
:1014E00000901748006800F460741648007900B94D
:1014F00038BDC4F3C71000901248407928B99DF850
:101500000000C0F10700C0B200909DF80000FFF796
:1015100010FB0D4890F900009DF80010884206D09D
:1015200008488068401C07498860002088819DF831
:10153000000040B20449087000BFD9E70004004031
:1015400010040240000000206000002010B5044696
:101550006FF0040000F094F9E11704EB5171C1F34E
:10156000C701394A11701046007800EB4001C1EB09
:10157000C0104FF6FF7101EAC0003449088010BD69
:101580000146314A12784A434FF0E0235A61002263
:101590009A611A46126942F001021A6100BF4FF0C7
:1015A000E022106900F001021AB100F48032002A32
:1015B000F5D04FF0E022126922F001024FF0E02353
:1015C0001A6100229A6170470146204A12884A43F4
:1015D0004FF0E0235A6100229A611A46126942F0E4
:1015E00001021A6100BF4FF0E022106900F0010211
:1015F0001AB100F48032002AF5D04FF0E0221269CF
:1016000022F001024FF0E0231A6100229A61704734
:1016100070B504464FF4077094FBF0F0C6B24FF477
:10162000077094FBF0F100FB114085B205E04FF428
:101630000770FFF7C9FF701EC6B2002EF7D115B1B3
:101640002846FFF7C1FF70BD620000206400002043
:10165000014600BF704700BF4C4A128802F04002AA
:10166000002AF9D0C2B2494B9A80704710B588B0B1
:1016700004460121084601F00BFD0121102001F074
:1016800061FD07220921424800F029FA07220A21B8
:101690003F4800F024FA4FF4C060069002208DF815
:1016A0001C008DF81D0000208DF81E0001208DF813
:1016B0001F0006A9364800F087F902940020ADF813
:1016C0000C00ADF80E00ADF81000ADF814000C20C1
:1016D000ADF8120002A92D4800F0A1FA01212B4813
:1016E00000F025FB012240F22551284800F0D5FBEF
:1016F00025208DF8040003208DF805008DF80600E4
:1017000001208DF8070001A800F06DF808B010BDA9
:1017100010B540F225511D4800F0FAFB10B31B48EC
:1017200000F034FBC4B21B48008800F40040C8B984
:101730001848008800F4804060B10A2C03D00020D3
:101740001449088020E01348008840F40040114903
:10175000088019E00D2C06D10E48008840F4804026
:101760000C49088010E00B480088C0F30D000A49BE
:101770000C5408480088401C064908800846008828
:10178000C72801DD0020088010BD000000100140C6
:10179000000002406C000020BC0000200948804787
:1017A00009480047FEE7FEE7FEE7FEE7FEE7FEE743
:1017B000FEE7FEE7FEE7FEE704480549054A064B5B
:1017C00070470000F507000889010008E8010020C3
:1017D000E8070020E8030020E80300203249014325
:1017E000324A1160704770B5002100230F22C4787F
:1017F0001CB32E4C246804F4E064C4F5E064C4F324
:101800000721C1F10404E3B20A4144789C40E1B2EB
:101810008478144021430C07210E254C057861552E
:10182000047804F01F050124AC4005786D11AD006B
:1018300005F1E025C5F8004109E0047804F01F0532
:101840000124AC401B4D0678761145F8264070BD4A
:10185000194A0A400243154B1B1F1A60704739B1E1
:10186000124A121D12680243104B1B1D1A6006E03B
:101870000E4A121D126882430C4B1B1D1A607047E2
:10188000042808D14FF0E021096941F004014FF02C
:10189000E022116107E04FF0E021096921F0040125
:1018A0004FF0E022116170470000FA050CED00E0F6
:1018B00000E400E080E100E080FFFF1F10B5044677
:1018C0009848844208D10121084601F04CFC0021CF
:1018D000012001F048FC76E09348844208D10121C0
:1018E000022001F040FC0021022001F03CFC6AE0F3
:1018F0008E48844208D10121042001F034FC0021EB
:10190000042001F030FC5EE08948844208D10121C6
:10191000082001F028FC0021082001F024FC52E0FE
:101920008448844208D10121102001F01CFC0021D0
:10193000102001F018FC46E07F48844208D10121C4
:10194000202001F010FC0021202001F00CFC3AE0E6
:101950007A48844208D10121402001F004FC002192
:10196000402001F000FC2EE07548844208D101219E
:10197000802001F0F8FB0021802001F0F4FB22E040
:101980007048844208D10121801501F0ECFB002150
:10199000A01501F0E8FB16E06B48844208D1012154
:1019A000401501F0E0FB0021601501F0DCFB0AE0CE
:1019B0006648844207D10121001501F0D4FB0021C3
:1019C000201501F0D0FB10BDF0B50A460021002320
:1019D000002400BF3DE0012505FA01F3156805EA82
:1019E00003049C4234D105684F000326BE40B54332
:1019F000056015794E00B5400668354305601579D8
:101A0000012D02D01579022D16D185684F000326CD
:101A1000BE40B543856055794E00B5408668354374
:101A20008560456801268E40B543456045689679D6
:101A30008E40B6B235434560C5684F000326BE40B0
:101A4000B543C560D5794E00B540C6683543C5601D
:101A5000491C1029BFD3F0BD4FF6FF710160002172
:101A6000017141718171C171704708B54FF48032C5
:101A70000092009A0A430092009AC261C161009AE2
:101A8000C261C2690092C269009208BD024600208C
:101A900013690B400BB1012000E0002070470146A4
:101AA000086980B270470246002053690B400BB1B1
:101AB000012000E0002070470146486980B270476D
:101AC00001837047418370470AB1018300E041837D
:101AD00070474161704742694A4042617047F0B5C2
:101AE000002300244D07ED0E02FA05F3CE1000F19D
:101AF000200555F826504E07F70E0F26BE40B54379
:101B0000CF1000F1200646F82750CE1000F1200536
:101B100055F8265045EA0304CE1000F1200545F89B
:101B20002640F0BD000002400004024000080240D0
:101B3000000C024000100240001402400018024055
:101B4000001C024000200240002402400028024005
:101B500010B50446FA48844208D10121102001F052
:101B600046FB0021102001F042FB57E0F54884427B
:101B700009D10121480401F029FB00214FF4003074
:101B800001F024FB4AE0F048844209D10121880495
:101B900001F01CFB00214FF4802001F017FB3DE019
:101BA000EA48844209D10121C80401F00FFB002159
:101BB0004FF4002001F00AFB30E0E548844209D1EF
:101BC0000121080501F002FB00214FF4801001F013
:101BD000FDFA23E0DF48844208D10121202001F0F2
:101BE00006FB0021202001F002FB17E0DA488442C6
:101BF00009D10121880701F0E9FA00214FF0804066
:101C000001F0E4FA0AE0D548844207D101214005F9
:101C100001F0DCFA0021600501F0D8FA10BD2DE9D1
:101C2000FF4705460E460024A14600BFA046B089E6
:101C300000B100BF2C8A24F44054F08804432C8265
:101C4000AC8941F20C608443B088318908437189C2
:101C500008430443AC81AC8A24F44074B089044343
:101C6000AC82684601F043F9B548854202D0B948D4
:101C7000854202D1DDF80C9001E0DDF80890A889DA
:101C800000F4004040B109EBC90000EB09103168D5
:101C90004900B0FBF1F707E009EBC90000EB0910C0
:101CA00031688900B0FBF1F76420B7FBF0F0040164
:101CB0002009642101FB1078A88900F4004040B19C
:101CC000322000EBC800B0FBF1F000F00700044345
:101CD00008E0322000EB08106421B0FBF1F000F0C6
:101CE0000F0004432C81BDE8FF874FF416510160BB
:101CF00000218180C18001810C21418100218181ED
:101D0000704710B502460020108A20F470600B88DE
:101D10004C8823438C882343CC8823431843108268
:101D200010BD0021018041808180C180704721B1B8
:101D3000828942F40052828104E082894DF6FF7369
:101D40001A4082817047028B02F47F420283028B29
:101D50000A430283704721B1828942F400428281A2
:101D600003E08289C2F30E028281704721B1828A28
:101D700042F40062828204E0828A4FF2FF731A40CA
:101D800082827047C1F308028280704701468888CA
:101D9000C0F308007047028A4FF6F0731A400282BF
:101DA000028A0A430282704721B1828942F002020C
:101DB000828104E082894FF6FD731A408281704768
:101DC00082894FF2FF731A40828182890A4382819D
:101DD0007047028A4FF6DF731A400282028A0A4372
:101DE0000282704721B1028A42F48042028204E0FA
:101DF000028A4BF6FF731A4002827047818941F0D4
:101E000001018181704721B1828A42F008028282F9
:101E100004E0828A4FF6F7731A4082827047028B81
:101E2000D2B20283028B42EA01220283704721B1BF
:101E3000828A42F02002828204E0828A4FF6DF73B7
:101E40001A408282704721B1828A42F01002828257
:101E500004E0828A4FF6EF731A4082827047828ACA
:101E60004FF6FB731A408282828A0A43828270474D
:101E700021B1828A42F00202828204E0828A4FF615
:101E8000FD731A40828270471AB1838A0B438382A2
:101E900002E0838A8B4383827047F0B503460024B7
:101EA00000260025002040F66A17B94200D100BF85
:101EB0001846C1F3421401F01F06012707FA06F580
:101EC000012C01D10C3004E0022C01D1103000E0D3
:101ED00014301AB107682F43076002E00768AF4368
:101EE0000760F0BD02460020B1F5007F00D100BFC1
:101EF00013880B400BB1012000E00020704701F473
:101F00000072B2F5007F00D100BFCA430280704763
:101F100070B50246002400230025002040F66A1612
:101F2000B14200D100BFC1F3421501F01F030126E9
:101F300006FA03F3012D13D19689334017E0000010
:101F4000001001400044004000480040004C0040A8
:101F5000005000400014014000780040007C004028
:101F6000022D02D1168A334001E0968A33400C12CA
:101F7000012606FA04F41688344013B10CB101208E
:101F800000E0002070BD10B50022002340F66A1466
:101F9000A14200D100BF0A1201249440A3B2DC4345
:101FA000048010BD10B50446FE48844208D10121CA
:101FB000084601F01CF90021012001F018F99DE00C
:101FC000B4F1804F08D10121084601F0FFF800214B
:101FD000012001F0FBF891E0F348844208D101218F
:101FE000022001F0F3F80021022001F0EFF885E073
:101FF000EE48844208D10121042001F0E7F80021D5
:10200000042001F0E3F879E0E948844208D1012195
:10201000082001F0DBF80021082001F0D7F86DE07E
:10202000E448844208D10121102001F0CFF80021BA
:10203000102001F0CBF861E0DF48844208D1012193
:10204000202001F0C3F80021202001F0BFF855E066
:10205000DA48844208D10121022001F0C8F80021A9
:10206000022001F0C4F849E0D548844209D1012199
:10207000080401F0BCF800214FF4803001F0B7F8FB
:102080003CE0D048844209D10121480401F0AFF876
:1020900000214FF4003001F0AAF82FE0CA48844232
:1020A00009D10121880401F0A2F800214FF4802019
:1020B00001F09DF822E0C548844208D1012140206A
:1020C00001F084F80021402001F080F816E0C048BB
:1020D000844208D10121802001F078F8002180207D
:1020E00001F074F80AE0BB48844207D10121801551
:1020F00001F06CF80021A01501F068F810BD002275
:102100000288A84B98420ED0AC4B98420BD0B0F14D
:10211000804F08D0A44B984205D0A44B984202D0DF
:10212000A34B984204D14FF68F731A404B881A4341
:10213000A04B984207D0A04B984204D04FF6FF43E3
:102140001A400B891A4302804B68C3620B880385CF
:10215000944B984202D0994B984201D18B7A0386D6
:102160000123838270474FF0FF31416000210180DD
:1021700001814180817270470185828270470A46E1
:10218000002101884FF68F73194011430180704779
:1021900041627047C16270470146486A7047014614
:1021A000088D704721B1028842F00202028004E0EB
:1021B00002884FF6FD731A400280704721B10288F1
:1021C00042F00402028004E002884FF6FB731A40DA
:1021D0000280704721B1028842F08002028004E050
:1021E00002884FF67F731A400280704702884FF6CC
:1021F000F7731A40028002880A43028070470288FF
:102200004FF6FF431A40028002880A43028070475B
:1022100021B1028842F00102028004E002884FF6F8
:10222000FE731A400280704770B50024002200231C
:10223000058C4FF6FE7635400584028C8388048B2E
:102240004FF68F752C40B51E2C400D882C43751E03
:102250002A408D892A434D882A43524DA84202D0F4
:10226000564DA84213D14FF6F7752A40CD892A431F
:102270004FF6FB752A408D882A434FF6FF652B40A9
:102280004FF6FF552B400D8A2B434D8A2B438380FD
:1022900004838D684563028470BD70B500240022FC
:1022A0000023058C4FF6EF7635400584028C838839
:1022B000048B48F6FF752C404FF6FF452C400D88E7
:1022C0004FF6FF7606EA05252C434FF6DF752A40C8
:1022D0008D8906EA05152A434D8806EA05152A4325
:1022E000304DA84202D0354DA8421DD14FF67F7522
:1022F0002A40CD894FF6FF7606EA05152A434FF6A8
:10230000BF752A408D8806EA05152A434FF6FF352A
:102310002B404FF2FF752B400D8A06EA85052B43B3
:102320004D8A06EA85052B43838004838D68856387
:10233000028470BD70B5002400220023058C4FF686
:10234000FF6635400584028C8388848B4FF68F7539
:102350002C404FF6FC752C400D882C434FF6FF5552
:102360002A408D894FF6FF7606EA05252A434D88D7
:1023700006EA05252A430B4DA84202D00F4DA8427C
:1023800038D14FF2FF752A40CD894FF6FF7606EA25
:1023900005252A434FF6FF352A408D8806EA052594
:1023A0002A4319E0000001400004004000080040FA
:1023B000000C0040001000400014004000040140E8
:1023C0000040014000440140004801400018004026
:1023D000001C0040002000404EF6FF752B404DF6DB
:1023E000FF752B400D8A06EA05152B434D8A06EA38
:1023F00005152B43838084838D68C563028470BD7B
:1024000070B5002200230024058C4EF6FF7635407F
:102410000584038C8488828B48F6FF752A404FF62A
:10242000FF452A400D884FF6FF7606EA05252A4328
:102430004DF6FF752B408D8906EA05352B434D88F7
:1024400006EA05352B43FE4DA84202D0FD4DA842B9
:1024500008D14BF6FF752C400D8A4FF6FF7606EA41
:1024600085152C43848082838D680564038470BD48
:10247000002101804180818081608181C181018250
:102480004182704770B5034600200024184618307A
:1024900001258D40ACB21D8CA5431D8409B10829CE
:1024A0000AD100EB610005684FF68F763540056074
:1024B0000568154305600FE00D1FC5F34E05284460
:1024C000056848F6FF763540056005684FF6FF76EB
:1024D00006EA02263543056070BD4163704781639B
:1024E0007047C1637047016470470A460021018B41
:1024F0004FF68F7319401143018370470A4600213C
:10250000018B48F6FF7319404FF6FF7303EA02236D
:102510001943018370470A460021818B4FF68F7360
:1025200019401143818370470A460021818B48F688
:10253000FF7319404FF6FF7303EA022319438183A7
:1025400070470A460021018B4FF6F773194011437B
:10255000018370470A460021018B4FF2FF73194037
:102560004FF6FF7303EA02231943018370470A46BB
:102570000021818B4FF6F773194011438183704717
:102580000A460021818B4FF2FF7319404FF6FF730B
:1025900003EA02231943818370470A460021018B15
:1025A0004FF6FB7319401143018370470A4600211F
:1025B000018B4FF6FF3319404FF6FF7303EA0223F6
:1025C0001943018370470A460021818B4FF6FB7344
:1025D00019401143818370470A460021818B4FF6D1
:1025E000FF3319404FF6FF7303EA02231943818337
:1025F00070470A460021018B4FF67F731940114343
:10260000018370470A460021018BC1F30E014FF68A
:10261000FF7303EA02231943018370470A4600212E
:10262000818B4FF67F7319401143818370470A46AF
:102630000021818BC1F30E014FF6FF7303EA0223E1
:102640001943818370470A460021018C4FF6FD73C0
:1026500019401143018470470A460021018C4FF64E
:10266000F77319401143018470470A460021018C19
:102670004FF6DF7319404FF6FF7303EA0213194355
:10268000018470470A460021018C4FF67F73194080
:102690004FF6FF7303EA02131943018470470A4699
:1026A0000021018C4FF6FF5319404FF6FF7303EAE8
:1026B00002231943018470470A460021018C4FF21E
:1026C000FF7319404FF6FF7303EA02231943018495
:1026D00070470A460021018C4DF6FF7319404FF6F2
:1026E000FF7303EA023319430184704730B50023B6
:1026F00001248C40A3B2048C9C430484048C02FA11
:1027000001F5ADB22C43048430BD30B50023042460
:102710008C40A3B2048C9C430484048C02FA01F51F
:10272000ADB22C43048430BD828B4FF2FF331A408C
:102730008283828B4FF6FF7303EA01231A4382835D
:102740007047F0B50C461546002100220026078C84
:102750004EF6FF7C07EA0C070784818B028C4FF64C
:10276000FF7707EA043640F6FF4739404FF6FF7718
:1027700007EA052739434FF6FF7707EA033739435E
:1027800045F6FF773A4046F480573A438183028406
:10279000F0BD828B4FF6F3731A408283828B0A431B
:1027A00082837047F0B50C461546002100220026B2
:1027B000078C4FF6FF6C07EA0C070784818B028CAD
:1027C0004FF6FF7707EA04264FF60C7739404FF6AD
:1027D000FF7707EA03172F4339434FF2FF573A4079
:1027E00046F480773A4381830284F0BD028B4FF236
:1027F000FF331A400283028B4FF6FF7303EA012373
:102800001A4302837047F0B50C461546002100229A
:102810000026078C4FF6EF7C07EA0C070784018B34
:10282000028C4FF6FF7707EA041640F6FF4739405F
:102830004FF6FF7707EA033739434FF6FF7703E098
:10284000000001400004014007EA052739434FF624
:102850005F773A4046F010073A4301830284F0BDA7
:10286000028B4FF6F3731A400283028B0A430283F2
:102870007047F0B50C46154600210022068C4FF635
:10288000FE773E400684018B028C4FF60C76314079
:102890007E1C06EA03162E4331434FF6F57632408E
:1028A00044F00106324301830284F0BD70B5054651
:1028B0000C46208850B92389A28861882846FFF7F2
:1028C000D8FFE1882846FFF7CBFF25E020880428C1
:1028D0000AD12389A28861882846FFF794FFE188FE
:1028E0002846FFF783FF17E0208808280AD12389AC
:1028F000A28861882846FFF755FFE1882846FFF740
:1029000048FF09E02389A28861882846FFF719FF5C
:10291000E1882846FFF708FF70BD00210180418053
:10292000012181800021C180018170472DE9F041A2
:1029300005460C4600260127608808B9022600E0FB
:102940000026A088012801D1022700E00127208865
:10295000A0B92389A28861882846FFF78AFFE18809
:102960002846FFF77DFF23893A4631462846FFF780
:102970004AFFE1882846FFF739FF13E02389A28840
:1029800061882846FFF73FFFE1882846FFF72EFFC2
:1029900023893A4631462846FFF76BFFE1882846EF
:1029A000FFF75EFFBDE8F0810146486B70470146C6
:1029B000886B70470146C86B70470146086C7047CA
:1029C0000A884B881A438B881A43CB881A430B8991
:1029D0001A434B891A438B891A43A0F84420704745
:1029E0000021018041808180C180018141818181FC
:1029F000704731B1B0F8442042F40042A0F84420BE
:102A000005E0B0F84420C2F30E02A0F8442070475D
:102A100021B1828842F00402828004E082884FF66D
:102A2000FB731A408280704721B1828842F0010214
:102A3000828004E082884FF6FE731A4082807047DD
:102A40001AB183890B43838102E083898B4383819D
:102A500070478182704702460020138A0B400BB1F9
:102A6000012000E000207047CA430282704730B561
:102A70000246002000230024158A05EA01039589F7
:102A800005EA010413B10CB1012000E0002030BDC3
:102A9000CA430282704741EA0203A0F848307047F7
:102AA0001AB183890B43838102E083898B4383813D
:102AB000704721B1828842F00802828004E0828857
:102AC0004FF6F7731A408280704701894FF6F8720B
:102AD0001140018170470A46002101894FF68F732A
:102AE000194011430181704730B504460D4629460F
:102AF0002046FFF7F0FF208940F00700208130BD1D
:102B00002DE9F04104460D4616461F46602D06D1BC
:102B10003B46012231462046FFF775FE05E03B4665
:102B2000012231462046FFF7A4FE29462046FFF742
:102B3000D2FF208940F007002081BDE8F08130B548
:102B40000C4600210189C9B24FF6FF7505EA03253D
:102B5000154325432943018130BD2DE9F041054648
:102B60000E4617469846002443463A4631462846C4
:102B7000FFF7E5FF2C894FF6F870044044F0070496
:102B80004FF68F70044044F070042C81BDE8F08152
:102B9000F0B504460D4616461F463B4632462946CA
:102BA0002046FFF7CCFF208940F480402081F0BD13
:102BB00082884FF68F731A40828082880A4382800F
:102BC000704702894FF6F8731A40028102890A435E
:102BD0000281704702894FF67F731A400281028991
:102BE0000A4302817047F0B50C4615461E46002187
:102BF000002200230189028B038C4FF6F8773940BD
:102C000021434FF6FC473A4040F201173A434FF652
:102C1000DD773B404FF6FF7707EA06172F433B432C
:102C2000018102830384F0BD21B1828842F08002D9
:102C3000828004E082884FF67F731A40828070475A
:102C4000A0F850107047000010B50121880300F073
:102C5000CEFA00214FF4804000F0C9FA10BD1C49A3
:102C6000086070471B490862704730B500228B0727
:102C70001C0F0F2303FA04F2154B08338C1053F882
:102C800024309343124C08348D1044F825302346E9
:102C90008C1053F824308C07240F00FA04F42343DB
:102CA0000B4C08348D1044F8253030BD0949DC3117
:102CB00008607047084908607047002004492031C7
:102CC000096801F4807109B1012000E0002070471B
:102CD000003801400000274200042742F9480068FC
:102CE00040F00100F74908600020F649083108600B
:102CF000F4480068F4490840F2490860F348091DA7
:102D00000860F348EF4984310860F0481038091D25
:102D10000860EC48006820F48020EA490860002040
:102D2000E8490C310860E7498C31086070470021A0
:102D3000E44A921C117011460870704710B50146A4
:102D40000022002300204A11012A02D1DD4C236811
:102D500008E0022A03D1DB4C7034236802E0D94C2E
:102D60007434236801F01F02012494401C400CB10C
:102D7000012000E0002010BD38B5002000900024A4
:102D8000002500BF3120FFF7D9FF05460098401C01
:102D900000900098B0F5A04F01D0002DF2D0312066
:102DA000FFF7CCFF08B1012400E00024204638BD25
:102DB00001460020C34A106820F0F80040EAC10034
:102DC00010607047C349086070470021BD4A7032E7
:102DD00011701170012802D004280AD104E00121E9
:102DE000B84A7032117005E00521B64A7032117090
:102DF00000E000BF00BF7047B7490860704770B57A
:102E0000049C41EA82150126C6EB530645EA0645B5
:102E1000054345EA0465AB4E361D356070BDAD49CE
:102E200008667047820142EA0172A64B84331A6039
:102E30007047A8498866704710B5830143EA01636B
:102E400043EA02739F4C8834236010BDA149086790
:102E50007047A049C864704702460020994B083368
:102E6000186820F0EC6042EA01031843954B0833E0
:102E70001860704702460020924B0833186820F013
:102E8000784042EA010318438E4B083318607047BC
:102E9000014600208B4A0832106820F003000843E6
:102EA0001060704787480830006800F00C007047D9
:102EB00001460020834A0832106820F0F0000843E1
:102EC00010607047014600207E4A0832106820F4E6
:102ED000E05008431060704701460020794A0832EC
:102EE000106820F4604040EAC10010607047F0B5FF
:102EF000002100220024022500260223714F0837FA
:102F00003F6807F00C0121B1042905D0082937D109
:102F100005E0724F076036E0714F076033E0694F9C
:102F20003F1D3F68C7F38056664F3F1D3F6807F05F
:102F30003F036EB16A4FB7FBF3F7DFF888C10CF1BE
:102F4000040CDCF800C0CCF3881C07FB0CF40CE08C
:102F5000624FB7FBF3F7DFF86CC10CF1040CDCF83F
:102F600000C0CCF3881C07FB0CF4564F3F1D3F6894
:102F7000C7F301477F1C7D00B4FBF5F7076002E053
:102F8000564F076000BF00BF4E4F08373F6807F03D
:102F9000F0010909534F7A5C0768D7404760494FF1
:102FA00008373F6807F4E051890A4E4F7A5C47685A
:102FB000D7408760434F08373F6807F46041490BAB
:102FC000484F7A5C4768D740C760F0BD002100F4E5
:102FD0004072B2F5407F0AD13A4A0832116821F4B2
:102FE000F811414A02401143364A08321160354A0D
:102FF00070321268C0F30B031A43324B70331A60FD
:103000007047354944390860704733494039086092
:10301000704736490860704701460020294A8C32C3
:10302000106820F01F004A1E1043264A8C321060A0
:10303000704701460020234A8C32106820F4F85073
:103040004A1E40EA02201F4A8C3210607047014637
:1030500000201C4A8C32106820F440100843106095
:10306000704701460020174A8C32106820F4400057
:1030700008431060704701460020124A8C321068E5
:1030800020F44030084310607047194908607047C9
:1030900039B10C4A3032126802430A4B30331A609D
:1030A00006E0084A303212688243064B30331A6019
:1030B0007047F9B1034A343212680243014B34338A
:1030C0001A601CE000380240FFFFF6EA10300024CE
:1030D0000030002000004742800E47420024F400E8
:1030E00040787D016E000020FFFCFF0F5C0147422D
:1030F000E01147428F4A126882438E4B1A60704734
:1031000039B18C4A121D126802438A4B1B1D1A608A
:1031100006E0884A121D12688243864B1B1D1A6006
:10312000704739B1834A0C3212680243814B0C3329
:103130001A6006E07F4A0C32126882437D4B0C33E2
:103140001A60704739B17B4A103212680243794BDA
:1031500010331A6006E0774A103212688243754BCA
:1031600010331A60704739B1724A243A1268024328
:10317000704B243B1A6006E06E4A243A1268824380
:103180006C4B243B1A60704739B16A4A203A126886
:103190000243684B203B1A6006E0664A203A1268F8
:1031A0008243644B203B1A60704739B1614A1C3A34
:1031B000126802435F4B1C3B1A6006E05D4A1C3AF2
:1031C000126882435B4B1C3B1A60704739B1594A05
:1031D000143A12680243574B143B1A6006E0554AF2
:1031E000143A12688243534B143B1A60704739B14A
:1031F000504A103A126802434E4B103B1A6006E0E8
:103200004C4A103A126882434A4B103B1A6070478E
:1032100039B1484A1C3212680243464B1C331A60CB
:1032200006E0444A1C3212688243424B1C331A6047
:10323000704739B13F4A2032126802433D4B203378
:103240001A6006E03B4A203212688243394B203331
:103250001A60704739B1374A243212680243354B3D
:1032600024331A6006E0334A243212688243314B19
:1032700024331A60704739B12E4A2C321268024347
:103280002C4B2C331A6006E02A4A2C3212688243F7
:10329000284B2C331A60704739B1264A30321268F5
:1032A0000243244B30331A6006E0224A303212685F
:1032B0008243204B30331A607047012808D11D49E2
:1032C0003C31096841F008011A4A3C32116007E0BC
:1032D00018493C31096821F00801164A3C32116056
:1032E000704739B1134A273A12780243114B273BF2
:1032F0001A7006E00F4A273A127882430D4B273B9B
:103300001A7070470B484030006840F080700949DF
:1033100040310860704701460020064A283A12688A
:103320000A400AB1012000E0002070470149263917
:103330000870704734380240002041490860091D78
:103340000860091D0860091D08603E483C491431A9
:103350000860704700213A498279002A3AD00A462B
:10336000126803689A430B461A600A1D12680368C4
:103370009A430B1D1A60027911440A6803681A43C4
:103380000A602F4A0832126803689A432C4B0833AC
:103390001A601A1D126803689A43294B0C331A608D
:1033A0004279102A0ED11A1F126803681A43244B5F
:1033B00008331A601A1D126803681A43204B0C3335
:1033C0001A600DE01E49427911440A6803681A43E5
:1033D0000A6005E0027911440A6803689A430A60AA
:1033E00070470021016001710C2141710021817140
:1033F00070471349103109680143114A10321160B6
:103400007047014600200E4A143212680A400AB181
:10341000012000E00020704709491431086070471E
:1034200001460020064A143212680A400AB10120FF
:1034300000E0002070470249143108607047000026
:10344000003C0140FFFF7F0010B50446FE48844267
:1034500009D101214806FFF7B9FE00214FF00070A5
:10346000FFF7B4FE08E001218806FFF7AFFE002158
:103470004FF08060FFF7AAFE10BD30B50246002075
:103480000023146824F002041460146844F001045A
:10349000146000E05B1C546804F001041CB94FF692
:1034A000FF74A342F6D1546804F001040CB9002063
:1034B0006CE08C79012C04D1146844F08004146011
:1034C00003E0146824F080041460CC79012C04D14A
:1034D000146844F04004146003E0146824F04004CD
:1034E00014600C7A012C04D1146844F02004146098
:1034F00003E0146824F0200414604C7A012C04D1F9
:10350000146844F01004146003E0146824F01004FC
:1035100014608C7A012C04D1146844F008041460FF
:1035200003E0146824F008041460CC7A012C04D160
:10353000146844F00404146003E0146824F00404E4
:1035400014608C78A407CD7844EA05640D7944EAC8
:1035500005444D7944EA05540D886D1E2C43D46111
:10356000146824F001041460002300E05B1C54681C
:1035700004F001041CB14FF6FF74A342F6D1546865
:1035800004F001040CB1002000E0012030BD10B5B2
:103590000021837A012202FA03F1AC4A126842F058
:1035A0000102AA4B1A60A94A1C3212688A43A74B2F
:1035B0001C331A60027BCAB9A44A0C3212688A43CF
:1035C000A24B0C331A604288C38842EA03439F4AE5
:1035D0004032847A42F834300288838842EA0343D6
:1035E0009A4A4032847A02EBC4025360027B012A79
:1035F00019D1964A0C3212680A43944B0C331A6064
:103600004288038842EA0343904A4032847A42F86F
:103610003430C288838842EA03438C4A4032847A39
:1036200002EBC4025360C27A3AB9884A121D12688A
:103630008A43864B1B1D1A6006E0844A121D1268DD
:103640000A43824B1B1D1A60028932B97F4A143229
:1036500012688A437D4B14331A600289012A06D10D
:103660007A4A143212680A43784B14331A60427B48
:10367000012A06D1754A1C3212680A43734B1C3367
:103680001A60724A126822F00102704B1A6010BD73
:1036900000218171C171017241728172C1728170A8
:1036A000C170032101710221417101210180704724
:1036B0006649096841F00101644A116011460968D0
:1036C00043F60E729143614A11601146096841EA5E
:1036D000002111601146096821F001011160704755
:1036E00021B1026842F48032026003E0026822F4F1
:1036F000803202607047E1B1026842F080020260ED
:103700004FF4C272125842F480734FF4C2721350D5
:103710004FF4CA72125842F480734FF4CA721350B5
:103720004FF4D272125842F480734FF4D272135095
:103730001BE0026822F0800202604FF4C27212584D
:1037400022F480734FF4C27213504FF4CA721258AD
:1037500022F480734FF4CA7213504FF4D27212588D
:1037600022F480734FF4D2721350704710B50246A2
:103770000020936803F08063B3F1806F00D110E004
:10378000936803F00063B3F1006F01D1012008E0FA
:10379000936803F08053B3F1805F01D1022000E011
:1037A0000420042879D002F5C07303EB00131B68D2
:1037B00003F0010402F5C07303EB00131C600B7AE5
:1037C0007BB94B7A0C8843EA445302F5C07404EB8E
:1037D00000142468234302F5C07404EB0014236032
:1037E00010E00B7A4C6843EAC4034C7A234302F599
:1037F000C07404EB00142468234302F5C07404EB86
:10380000001423608B7A03F00F038B7202F5C073F0
:1038100003EB00135B6823F00F0402F5C07303EBA6
:1038200000135C6002F5C07303EB00135B688C7AD5
:10383000234302F5C07404EB001463608B7B1C0609
:103840004B7B44EA034403E0006400400066004010
:103850000B7B44EA0323CC7A234302F5C07404EBC8
:103860000014A3608B7C1C064B7C44EA03440B7C55
:1038700044EA0323CC7B234302F5C07404EB001419
:10388000E36002F5C07303EB00131B6843F001040F
:1038900002F5C07303EB00131C6010BD10B50246A7
:1038A000002321B1012907D002290FD109E0906836
:1038B000F94C00EA04030BE09068F84C00EA0403BA
:1038C00006E09068F64C00EA040301E0002300BF24
:1038D00000BFF44C181BA34216D007DC83B16FF075
:1038E0008060184470B1022818D111E0B0F5007F53
:1038F00010D0ED4C204448B1B0F5003F0ED10BE0A4
:1039000002230DE000230BE0002309E0002307E081
:10391000012305E0012303E0012301E0002300BFB0
:1039200000BFD8B210BD21B1012907D002290FD1A3
:1039300009E0826842F0800282600AE0826842F414
:103940000042826005E0826842F40002826000E08A
:1039500000BF00BF704710B500F5D87303EB01132B
:103960001B6803F004031372137A53B900F5D8737C
:1039700003EB01131B6840F2FF7404EA5353136016
:1039800009E000F5D87303EB01131B686FF0604486
:1039900004EAD303536000F5D87303EB01131B68EB
:1039A00003F00203537200F5D87303EB01135B6855
:1039B00003F00F03937200F5D87303EB01135B68F8
:1039C0001B0AD37400F5D87303EB01139B68D37201
:1039D00000F5D87303EB01139B681C0A147300F500
:1039E000D87303EB01139B681C0C547300F5D87358
:1039F00003EB01139B681B0E937300F5D87303EB65
:103A00000113DB68D37300F5D87303EB0113DB6894
:103A10001C0A147400F5D87303EB0113DB681C0C4B
:103A2000547400F5D87303EB0113DB681B0E937419
:103A300021B9C36843F02003C36003E0036943F086
:103A40002003036110BD21B9C26842F02002C260A8
:103A500003E0026942F02002026170470246002042
:103A600019B9D36803F0030006E0012903D11369F3
:103A700003F0030000E00020704710B502460B463B
:103A800000204FF6FF71BBB9146824F0020444F023
:103A90000104146000E0491E546804F00304012C82
:103AA00001D00029F7D1546804F00304012C01D09F
:103AB000002032E0012030E0012B13D1146824F003
:103AC0000304146000E0491E546804F003040CB1C0
:103AD0000029F8D1546804F003040CB100201CE064
:103AE00001201AE0022B17D1146824F0010444F0DD
:103AF0000204146000E0491E546804F00304022C20
:103B000001D00029F7D1546804F00304022C01D03D
:103B1000002002E0012000E0002010BD014600204E
:103B20000A6822F0010242F002020A604A6802F0CA
:103B30000302022A00D10120704701464FF6FF72AE
:103B400000200B6823F002030B6000E0521E4B685C
:103B500003F00203022B01D1002AF7D14B6803F0D6
:103B60000203022B00D001207047014600208A6921
:103B700002F070007047014600208A69100E7047FD
:103B8000014600208A69C2F3074070471AB14369B1
:103B90000B43436102E043698B434361704710B5B7
:103BA0000246002001F4700343B19369C1F313048A
:103BB00023400BB101202DE000202BE001F08073A9
:103BC00043B15368C1F3130423400BB1012021E03A
:103BD00000201FE001F0006343B19368C1F31304B8
:103BE00023400BB1012015E0002013E001F0007329
:103BF00043B1D368C1F3130423400BB1012009E0A2
:103C0000002007E01369C1F3130423400BB1012026
:103C100000E0002010BD0022244B994202D1002375
:103C2000836111E0C1F3130201F000730BB1C260B4
:103C30000AE001F080630BB1026105E001F000636E
:103C40000BB1826000E0426070470246002002EA49
:103C500001030BB1012000E00020704770B504465D
:103C60000D46002660692840002872D0B5F5807F97
:103C700069D01DDC082D42D006DC012D2DD0022D8F
:103C800031D0042D7FD134E0102D3ED0202D42D0F4
:103C9000402D78D145E00000030000040003000837
:103CA00000000310000100080001FFF77000F03071
:103CB000B5F5004F61D009DCB5F5007F4AD0B5F508
:103CC000806F4DD0B5F5006F5DD150E0B5F5803F08
:103CD0002DD0B5F5003F56D12FE0A0685549FFF72C
:103CE000B4FF064651E0E0680321FFF7AEFF064649
:103CF0004BE0E0680821FFF7A8FF064645E0E068D2
:103D00001021FFF7A2FF06463FE020690321FFF7DD
:103D10009CFF064639E020690821FFF796FF06461A
:103D200033E020691021FFF790FF06462DE0606820
:103D30000821FFF78AFF064627E060681021FFF799
:103D400084FF064621E0A0690121FFF77EFF0646B9
:103D50001BE01BE0A0690221FFF777FF064614E095
:103D6000A0690421FFF771FF06460EE00BE0A06991
:103D70007021FFF76AFF064607E060680421FFF73D
:103D800064FF064601E0002600BF00E00026304642
:103D900070BDB1F5007F3AD00FDC202928D006DCB9
:103DA00001291CD004291DD0082940D11DE040293B
:103DB00021D0B1F5807F3AD126E0B1F5004F31D066
:103DC00006DCB1F5806F25D0B1F5006F2FD124E06E
:103DD000B1F5803F12D0B1F5003F28D111E0154A6E
:103DE000826025E00822C26022E01022C2601FE04B
:103DF000082202611CE01022026119E008224260E0
:103E000016E01022426013E00422426010E0042217
:103E100042600DE0042242600AE000228261042236
:103E2000426005E0002282610422426000E000BF9F
:103E300000BF704701010100704700000FB4044942
:103E400010B503AA029800F0D3F810BC5DF814FB7B
:103E5000680000202DE9F0410E4604460020206253
:103E60002046E168884730B3252805D0D4E90121F0
:103E70009047206A401CF2E7E16820460027884707
:103E8000050018D0A5F14100192802D820354FF4BB
:103E900000673246294620462760FCF7AFF940B15B
:103EA000012804D0F61D26F007060836D8E7361D8F
:103EB000D6E72846DAE7206ABDE8F0812DE9F0412F
:103EC0000646002410687529314616A510D0AFF3B8
:103ED0000080002802DA404213A507E031688A0713
:103EE00001D512A502E0490704D511A5012401E07E
:103EF000AFF3008000210A2206F1240709E0B0FB9D
:103F0000F2FCB0FBF2F302FB1C0030307854184690
:103F1000491C0028F3D123462A463046BDE8F0412B
:103F200000F00CB8000000002D0000002B00000085
:103F30002000000070477047704770472DE9F04738
:103F40000D4699469246044600F124080168880609
:103F500004D5E06921F01001216000E00120A842B1
:103F600001DD471B00E00027A1697A1902EB090077
:103F7000081AA0612078C00602D42046AFF3008062
:103F8000002608E0D4E901211AF806009047206ACB
:103F9000401C761C20624E45F4DB2078C0060AD512
:103FA0002046AFF3008006E0D4E90121302090479D
:103FB000206A401C2062381EA7F10107F4DC07E0EC
:103FC000D4E9012118F805009047206A401C2062BE
:103FD000281EA5F10105F3DC2046AFF30080207810
:103FE000000602D50220BDE8F0870120FBE70000B3
:103FF000074B70B50D467B4400F011F80446284687
:1040000000F020F810B14FF0FF3070BD204670BDB9
:104010005DD6FFFF01694A1C02610878704700B550
:104020008FB0CDE901310021059105497944CDE9F1
:10403000031011466846FFF70DFF0FB000BD0000EA
:10404000E5FFFFFF007B00F080007047754600F041
:1040500029F8AE4605006946534620F0070085461C
:1040600018B020B5FDF7A8FBBDE820404FF00006D2
:104070004FF000074FF000084FF0000B21F0070150
:10408000AC46ACE8C009ACE8C009ACE8C009ACE893
:10409000C0098D4670470446AFF300802046FCF708
:1040A000C1F80000004870478401002010B591EA73
:1040B000030F48BF83F0004300F1EC81841A71EBD9
:1040C000030C05D2121943EB0C03001B61EB0C012E
:1040D000DFF824E14FEA1154A4EB135C1EEA430F0E
:1040E00018BF9EEA445F73D023EA0E03DCF1200E72
:1040F00021EA045143F4801332D322FA0CFE10EB70
:104100000E0023FA0CFE41EB0E01CCF1200E03FA57
:104110000EFE10EB0E0051F10001B1F5801FCCF145
:10412000200E32D201EB045112FA0EF2BDE810401B
:1041300058BF7047401C38BF5FEA420218BF704743
:10414000002814BF20F0010041F100014FEA4103B3
:1041500013F5001F38BF7047A1F1C04100F08CB9C2
:10416000012A43EB0302ACF1200CDCF11F0E32BF3D
:104170004FF0000E23FA0CF310EB030041EB045157
:10418000B4EB115FD0D0A1EB045101F580114908C7
:104190005FEA300001EB04510ED350F1000038BF4C
:1041A00012FA0EFE08D1BDE81040C9E7401C38BF26
:1041B0005FEA4202CAD1C3E7BDE810404FEA4103BB
:1041C00013F5001F38BF7047A1F1C04100F054B98A
:1041D0009EEA445F08D011EA5E0FBDE8104004BFBC
:1041E00001F0004100207047BDE8104070B500F0BC
:1041F000F5F800BF64FBBE3E0000E0FF4FEA41035C
:104200004FEA5353A3F58063D3F11E03C8BFD3F124
:10421000210C0CDD4FF0004242EAC12242EA50522A
:1042200032FA03FC8CEAE17CACEBE1707047102BB6
:10423000C4BF0020704703F5787CBCF1FF3F04D079
:104240006FF0004282EA2100704770B500F0C6F8B6
:104250004992248000207047F2E710F0004248BFE6
:104260004042B0FA80F310FA03F10AD0C3F11D0303
:1042700003F580634FEA415002EB035202EBD12178
:1042800070474FF000007047DFF848C170B51CEA76
:10429000111E1EBF1CEA13159EEA0C0F95EA0C0FA7
:1042A00000F06F8081EA030423EA4C134EEAD47EC7
:1042B00021EA4C1141F4801143F48013AE44A1FB78
:1042C000024CA0FB0365AEF17F7E361955EB0C0561
:1042D000A1FB034C4CF10003A0FB021C16EB0C06E7
:1042E000654153F10003094218BF46F0010613F47B
:1042F000007F0BD14FEA03314FEA0530340341EA26
:10430000155140EA16506FF003020AE04FEAC3214C
:104310004FEAC520F40241EA555140EA56506FF089
:10432000020202EB2E4201EB025585EACE710AD061
:104330005FEA440C18BF24F0004450F1000041F142
:10434000000120EAD47040F2FE7C624500D270BDCC
:10435000A84214BF4FF080444FF04044002E08BFE5
:104360000024BEF1806FA8BFA1F1C041BDE870403C
:1043700080F282804FF0000001F1C04101F0004165
:1043800070479EEA0C0F0CEA131518BF95EA0C0F44
:1043900006D04FF0000081EA030E0EF0004170BD20
:1043A00000F01CF88900013E00F007B800F009B8E1
:1043B0004FEA430C5FEA5C5C08D081EA030100F03D
:1043C0005BB84FEA410C5FEA5C5CF6D14FF000004D
:1043D000014970470000FF070000F87F0EF1020E50
:1043E0002EF0030E5EF8046B364205D4012A43EB2F
:1043F000030515F5001F12D8012841EB010C1CF52F
:10440000001F0CD80ED14FEAD17C15F5001F0CEB24
:104410004C0C0CF1020C08BF4CEBD37C04E04FF0C9
:10442000080C01E04FEAD37C0CEB4C0526FA05F6AC
:1044300006F00706B6F1040C06D20EEB860CBDE8BA
:1044400070404CF0010C6047DFE80CF0090B0202F1
:104450004FF000414FF00000A1F5002170BD19465A
:104460001046012851EB010418BFD4F5001484BF95
:10447000002001F0004170BD0808A0F500114FEACE
:104480003101704710B591EA030F48BF83F0004334
:104490003FF514AE841A71EB030C07D212198CF09D
:1044A000004C43EB0C03001B61EB0C01DFF8A4E1B3
:1044B0004FEA1154A4EB135C1EEA430F18BF9EEAA7
:1044C000445F00F0B08023EA6E03524221EA0451B7
:1044D000C3EB6E0338BF5B1EDCF1200E25D322FA3E
:1044E0000CFE10EB0E0043FA0CFE41EB0E01CCF17A
:1044F000200E03FA0EFE10EB0E0051F10001CCF17C
:10450000200E29D412FA0EF201EB0451BDE810403E
:1045100058BF7047401C1CBFB2F1004F70470028C5
:104520000CBF491C20F00100704712EB020E43EB58
:10453000030218BF4FF0010E4EEA4202ACF1200C0C
:10454000DCF11E0E54D943FA0CFE10EB0E0051F1B3
:10455000FF31CCF11E0ED5D50EF1010E12FA0EFE72
:10456000404141EB010101EB445C5FEA5C5C10D926
:1045700010EBDE7001EB045138BFBEF1004FBDE817
:10458000104018BF704700280CBF491C20F00100E4
:10459000704730D24FEAD42C11F5001124F4006496
:1045A0001BD0B1FA81F20B3AA41AA41ED2F1200357
:1045B000914030FA03F31943904001EBCC71002C89
:1045C00001EB0451BDE81040A8BF704701F1C041A4
:1045D0004FF0000001F000417047B0FA80F310FA8C
:1045E00003F100D110BDE41A173C4805C90AE4E7FD
:1045F00001EB045110BD491001EB0451BDE810401E
:104600004FEA300002E04FF0000170474A0008BF57
:104610000042F8D0B2F5001F28BF704701F00041FA
:104620004FF0000070479EEA445F07D011EA5E0F2A
:10463000BDE8104004BF002100207047BDE81040D5
:1046400070B5FFF7CBFE00BF40DFF63E83F00041C0
:10465000104670470000E0FF4FF04070E1EE100A96
:104660007047000084460008000000208000000021
:10467000C40100080447000880000020680700000B
:10468000E0010008E8030000010000000000000055
:10469000000000000000000000000000000000001A
:1046A000000000000000000000000000000000000A
:1046B00000000000000000000000000000000000FA
:1046C0000000000000000000007A030A0000000063
:1046D00000000000010203040607080900000000B2
:1046E00000000101000000000000000000000000C8
:1046F0000000000000000102030401020304060799
:0447000008090000A4
:040000050800018965
:00000001FF
